:020000041000EA
:1000000000B5324B212058609868022188439860DF
:10001000D860186158612E4B002199600221596106
:100020000121F02299502B49196001219960352056
:1000300000F044F80222904214D00621196600F024
:1000400034F8196E01211966002018661A6600F04E
:100050002CF8196E196E196E052000F02FF8012189
:100060000842F9D1002199601B49196000215960AB
:100070001A491B48016001219960EB211966A021F2
:10008000196600F012F800219960164914480160C1
:100090000121996001BC002800D000471248134993
:1000A000086003C880F30888084703B5996A0420EC
:1000B0000142FBD001200142F8D103BD02B5186610
:1000C0001866FFF7F2FF186E186E02BD00000240BE
:1000D000000000180000070000035F00212200005C
:1000E000F4000018222000A00001001008ED00E03C
:1000F00000000000000000000000000074B24E7A12
:1001000000200420F7010010C3010010C5010010F9
:10011000C1010010C1010010C1010010C101001097
:10012000C1010010C1010010C1010010C701001081
:10013000C1010010C1010010C9010010CB01001065
:10014000CD010010CD010010CD010010CD01001037
:10015000CD010010CD010010CD010010CD01001027
:10016000CD010010CD010010CD010010CD01001017
:10017000CD010010CD010010CD010010CD01001007
:10018000CD010010CD010010CD010010CD010010F7
:10019000CD010010CD010010CD010010CD010010E7
:1001A000CD010010CD010010CD010010CD010010D7
:1001B000CD010010CD010010CD010010CD010010C7
:1001C00000BE00BE00BE00BE00BE00BEEFF3058054
:1001D000103800BEF2EB8871D80200100003001046
:1001E0003402001090A31AE700202249086006C8D4
:1001F00081F30888104720480068002835D10DA4F5
:100200000ECC002902D000F012F8F9E71B491C4A75
:10021000002000E001C19142FCD11A4988471A49E7
:1002200088471A49884700BEFDE701C901C29A42C2
:10023000FBD3704700030010C0000020608F002037
:10024000A0910010608F0020C8C9002008CC0010C9
:10025000000004200000042008CC0010001004203E
:1002600000100420000000007047094800F014F856
:100270000047000008ED00E0000000D0C8C90020E1
:10028000D4770320D935002079120020953500203D
:10029000575600000000000001B40248844601BC2B
:1002A000604700BF5148002006005250ABB3605376
:1002B000ECB6002006005250861C0302FCB600205B
:1002C000060052505422A29D14B70020050052503F
:0802D000DE65F46808CC0010A3
:1002D800CC020010C0020010B402001020B70020A9
:1002E800A80200102CB7002038B7002044B700201F
:0802F80050B7002080B800207F
:10030000F8B5C04610B5064C2378002B07D1054B35
:10031000002B02D0044800E000BF0123237010BD71
:10032000D0CA002000000000608F0020044B10B5F0
:10033000002B03D00349044800E000BF10BDC046B5
:1003400000000000D4CA0020608F0020174B1B68FB
:10035000002B1BD0154B1B68012B19D0134B1B68AE
:10036000022B17D0114B1B68032B16D00F4B1B68A9
:10037000042B15D00D4B1B68052B14D00B4B1B68A1
:10038000062B01D00A4802E00A4800E064207047CA
:10039000C820FCE7FA204000F9E7FA208000F6E7E1
:1003A000FA20C000F3E70448F1E7C04678C0002017
:1003B000A0860100102700008813000030B505005A
:1003C0000022074809E0AC5C4440FF2323405B0067
:1003D000044C1B5B000A584001328A42F3DB30BDFB
:1003E000FFFF000024A2002030B505000023FF20FD
:1003F00004E0EA5C4240034CA05C01338B42F8DB32
:1004000030BDC04624A4002010B5002903D0184AEE
:10041000D3680133D36005280BD00938012802D9ED
:10042000144B00221A70002902D0124B00221A70BD
:1004300010BD0F4A5369013353610E4B1B78002BDB
:100440000CD00D4B1B680D489B001C5880221204D9
:1004500022431A50064A936901339361084B1B6883
:10046000023B054A1360034B01221A70DBE7C046CA
:100470002C710320CC770320607103202CD1002045
:1004800064710320F8B5DE4657464E464546E0B552
:100490008446724B18688000714B8146994400274E
:1004A0000020002100239A4698468022120629E067
:1004B0001F2639E0002D04DB80231B0645461D4323
:1004C000A846002705E000278B4018430131082982
:1004D0000CD00134A64212DD1500D343DB0F5200CD
:1004E000062FE7D0002DEEDB0137EDE74B465146F6
:1004F000585401239B46DA4400200021E9E7634673
:100500009B1B9C466346002B13D0564C23685E1CF5
:1005100026609B00524C1C5963461E2BC8DC1E23D0
:1005200065465B1B9C406646630063405A4000245E
:10053000D0E7002904D080231B0542461A43904689
:100540005346002B64DD4B461A78474B1B78002B33
:1005500036D080239A4204D080235B0542461A435A
:1005600090465346012B53DD4B465B780F241C40CD
:10057000DB431B110F2213409C4223D080239B0599
:1005800042461A439046052C1FD0092C1DD0012C41
:100590001BD00D2C19D0042C17D0082C15D0032CEF
:1005A00005D00B2C03D0072C01D00F2C19D15346AA
:1005B000032B45DC8023DB0442461A43904610E0BF
:1005C0008123C7E7002CDED1D8E7082C26D0082CE1
:1005D00028D05346042B25D08023DB0442461A43FF
:1005E000904641462000FFF70FFF1C4A1368023B6C
:1005F000464651460E439B0019495E505346DD1C4A
:10060000E91703230B405D19AD101368ED18156051
:10061000F0BCBB46B246A946A046F8BD5346052BE2
:10062000DAD1D4E75346991E48460230FFF7DCFE84
:100630000928D6D08023DB0542461A439046D0E7EE
:10064000991E48460230FFF7B9FE084B9842C8D0C1
:100650008023DB0542461A439046C2E764710320BB
:100660002CD10020587103202C71032001B0000010
:10067000064B1B78002B04D0054B5943090C401A3C
:100680007047044B5943090C401AF9E72C710320B9
:1006900055150000ABAA000010B5024805F036FB66
:1006A00010BDC046BC99002010B5024805F02EFBD5
:1006B00010BDC046CC99002010B50D4805F026FBB2
:1006C0000C4B1B6BDB0704D40A4B1B6B9B0707D43B
:1006D00010BD094805F01AFB064B01221A63F7E723
:1006E000064805F013FB034B02221A63F0E7C046ED
:1006F000D499002000003050E0990020F0990020AB
:1007000010B50D4805F002FB0C4B1B6BDB0704D446
:100710000A4B1B6B9B0707D410BD094805F0F6FA7E
:10072000064B01221A63F7E7054805F0EFFA034B81
:1007300002221A63F0E7C046009A00200000205011
:10074000E0990020F0B5C64600B53D4B58681968E1
:10075000FFF78EFF070000233A4A13603A4A1360FE
:100760003A4A13603A4A13703A4AD36013615361AC
:100770009361002500262CE0374805F0C7FA0026D3
:10078000344B9E6080BCB846F0BD1368023B9B00B2
:100790002B4A802189049950012000214042FFF713
:1007A00033FE2C4A136901331361464610E0264B91
:1007B0001B68023B9B00224A80214904995000217A
:1007C0000520FFF721FE46461E4A136801331360D9
:1007D0000135204B9B68AB42D2DD1A490B68184AA1
:1007E0009B009C580B6801339B0098582100FFF731
:1007F0003FFF80235B029C42BED2134A1368013341
:10080000C01B9B000E4958500E490B6802330B6009
:10081000136802331360731C9846002CB5D0012C6A
:1008200008D10C4B1B78002BC1D0074A1368023B40
:100830001360C9E7601EFFF725FE4646C8E7C046BD
:100840002CD10020587103206471032060710320B3
:10085000CC7703202C7103200C9A002010B50100E6
:10086000014805F083FA10BD409A0020F8B50F004A
:100870001600800E8506364805F078FA04E0354803
:1008800005F074FAA5432FD1002D31D06C422C40D5
:1008900080231B069C42F2D08023DB059C4213D0B0
:1008A00080239B059C4213D080235B059C4213D080
:1008B00080231B059C4213D08023DB049C42E1D1A2
:1008C000254805F053FADDE7244805F04FFAD9E74B
:1008D000234805F04BFAD5E7224805F047FAD1E75F
:1008E000214805F043FACDE7204805F03FFACBE771
:1008F0001F4805F03BFA002E07DC012E0ADC022E11
:100900000DDC1C4805F002FAF8BD39781A4805F0EC
:100910002DFAF2E77978194805F028FAEFE7184838
:1009200005F024FA102E02DC0025022407E0012540
:100930001026FAE7395D134805F018FA0134A6428B
:10094000F8DC002DDDD0104805F010FAD9E7C046DC
:10095000489A0020509A0020709A0020589A00204F
:100960005C9A0020609A0020689A0020989A0020E3
:10097000789A0020A49F00207C9A00208C9A002066
:100980009C9A0020A49A0020AC9A002010B5C1784F
:100990000902837819434905490D024805F0E6F933
:1009A00010BDC046B09A002010B5CB781B028A78E3
:1009B00013437F221A40DB110F210B400100024834
:1009C00005F0D4F910BDC046BC9A002010B5010056
:1009D000014805F0CBF910BDCC9A0020F8B50E0007
:1009E000171F05F0C3F9002F11D0194B1D68002DFA
:1009F00007D01B68012B0ED0154B1B68022B0FD0A4
:100A00003D003900134805F0B1F9002413E0124805
:100A100005F07CF916E03D00102FF2DD1025F0E71F
:100A20003D00402FEDDD4025EBE7331999780B4869
:100A300005F09CF90134A542F7DCBD4203DB084810
:100A400005F064F9F8BD074805F090F9F7E7C046EE
:100A500084C00020DC9A0020D49A0020E49A002070
:100A6000A49F0020AC9A002070B584B082787F23C8
:100A700019001140D209C4782340E4090079012506
:100A8000054040080326304002900195009402483A
:100A900005F06CF904B070BDEC9A002010B50100AF
:100AA000014805F063F910BDCC9A002010B5040090
:100AB000084805F05BF9012C07D02100064805F035
:100AC00055F9064805F022F910BD054805F04EF924
:100AD000F7E7C0462C9B0020489B0020A49F0020E5
:100AE000409B0020F0B5D6464F464646C0B58949E2
:100AF0000B68894A9B009D580B6801339B009F58E7
:100B0000864B1B68FB1A9946854B1B68FB1A280409
:100B1000000C80460C680234A400A41862780F26EA
:100B20001640804A1278002A02D07F4A93422ADC7B
:100B3000434603339B100233764A11685B181360F7
:100B4000774B1F60774B01221A7080235B042A00C9
:100B50001A4092461D4200D00526744B1B68022B9A
:100B600016D0724B1B68012B14D0714B1B78D8B276
:100B7000002B19D0052E54D12B020ED56D4A1368C7
:100B8000013313604DE06C4805F0C0F8002048E0E8
:100B9000052EE6D1614B1F60E7E7664B1868FFF74B
:100BA00085FF634B00221A702B0203D5634B1B6831
:100BB000002B30D04846FFF751FEAB0136D45346E8
:100BC000002B41D1AB0E43D1052E48D0092E4BD07E
:100BD000012E4FD00D2E53D0022E57D00A2E5AD0B0
:100BE0000E2E5DD0062E60D0032E63D00B2E68D063
:100BF000072E6DD00F2E00D171E0042E00D175E0CC
:100C00000C2E00D177E0082E00D179E0002E00D123
:100C10007BE0012005E00133454A1370454A13602B
:100C20000120E0BCBA46B146A846F0BDFFF734FD4E
:100C30003E4B1B68032B04D03A4B00221A70012054
:100C4000EFE7364B1F60F7E7FFF72EFD0120E8E7DF
:100C5000424621002800FFF709FE0120E1E72000BD
:100C6000FFF794FE0120DCE721003548FFF79CFEEA
:100C70000120D6E721003348FFF796FE0120D0E798
:100C800021003148FFF790FE0120CAE72F48FFF707
:100C90009DFE0120C5E72E48FFF798FE0120C0E722
:100CA0002C48FFF793FE0120BBE72B48FFF78EFE91
:100CB0000120B6E7424621002848FFF78FFE0120B9
:100CC000AFE7424621002648FFF788FE0120A8E74B
:100CD000424621002348FFF781FE0120A1E742465A
:100CE00021002148FFF77AFE01209AE71F48FFF70D
:100CF000D5FE012095E71E48FFF7D0FE012090E7C2
:100D00002000FFF7B1FE01208BE71A48FFF7C6FE6F
:100D1000012086E74C7103202CD100205C71032058
:100D200054710320CA7703201027000088C00020D8
:100D3000CB77032050710320549B0020487103207F
:100D40009C9B0020A09B0020A49B0020AC9B00202B
:100D5000B09B0020B49B0020BC9B0020C49B0020C3
:100D6000CC9B0020D49B0020DC9B0020E49B002037
:100D7000EC9B0020F49B002010B5094B5B78002B06
:100D800001D1012010BD1221064804F0EFFFD0234D
:100D90001B065B685B03FAD4034804F0B7FFF0E777
:100DA0002C710320009C0020389C002010B50C689A
:100DB00001340C60944207D00A6892009A580100EE
:100DC000034804F0D3FF10BD00220A60F4E7C046D8
:100DD000449C002030B585B0244B9B68002B1ED06E
:100DE000234804F093FF234B5968234A11605A6843
:100DF000224B1A600023224A1370224A01211170EB
:100E0000214A1360214A13600024184B9B68A342B7
:100E100009DDFFF767FE002805D00134F5E71C481F
:100E200004F074FF18E0164B1B78002B03D0164B10
:100E30001B68002B12D10D4BD9681A691B78002B47
:100E400011D0144B09488468456980690290019566
:100E50000094114804F08AFF05B030BD0A4B1868B1
:100E6000FFF724FEE7E70D4BECE7C0462C710320AB
:100E70007C9C00202CD100205C7103205471032045
:100E8000CB770320CA770320507103204C710320D5
:100E9000609C00205C9C0020909C0020589C0020BE
:100EA00070B50500002400E00134032C0ADC2100A9
:100EB000280007F0F1FB0028F6D02100280007F0F9
:100EC000BDFBF1E770BD000070B5074D2800FFF7CE
:100ED000E7FF064C2000FFF7E3FF280007F008FCBF
:100EE000200007F005FC70BD0000205000003050CD
:100EF000F0B5DE4657464E464546E0B5A3B04DE058
:100F00001A4C81E01A4985E01A4C91E01523984665
:100F10009EE000233EE10023E4E1DB43164AB900F2
:100F20008B500137BF000023BB50144B9A6801322D
:100F30009A60B11C9A685B689A4225D037000E000F
:100F400002F098FB0E4B5B682342FBD12B00083369
:100F50009B000B4A9B58002BDFDB0A4A964213D8B2
:100F6000B100054A8B500136EAE7C046B0A5002023
:100F7000A8A50020C0E1644B2CD100202C710320D7
:100F800000002050FB9F0200F84A1368F8490B400C
:100F90001360FFF7D7FBF74807F01CFAD0231B06B6
:100FA0001B6DDB07FAD507F01FFAF34B1B68013BFB
:100FB0005A425341DBB2F14C2370F14B1B685A4249
:100FC0005341DBB26370FFF7C1F9606012AD40229C
:100FD0000021280004F002FD04AE062200213000AA
:100FE00004F0FCFCE74B1A6804929B88B3800495DC
:100FF0004022E549280004F0F7FCFFF765FF23785D
:10100000002B00D17CE7E14CDC4B1B78002B00D19E
:1010100078E7DF49DF4807F04FFB228812AB5A80A0
:1010200062889A80D54B1B78002B00D16CE7DA4C94
:10103000052002F081FA04F001FC211C04F0DFFB22
:10104000061CCE4B1B78002B00D15FE7142398467B
:10105000FFF73AFF122000F0D5FBD02424068023AE
:10106000DB029946A36200220121122000F0B0FBAE
:10107000162000F0C7FB8023DB036362A36114200A
:1010800000F0C0FB80235B03A362152000F0BAFBD5
:1010900080239B03A3620721162000F081FBBF4A37
:1010A00080239B011343F02212011A60BC490920DE
:1010B00000F00CFD0121092000F0DEFCB94D0121FA
:1010C000280007F0CBFA0400B749280007F0F4FA2B
:1010D00007000123009316222100280007F026FBB9
:1010E00000230093023314222100280007F01EFB86
:1010F000102200210EA804F071FC80235B020E93E5
:10110000F8235B020F934B461093C0231B031093ED
:1011100010220EA90AA804F067FCB91C3A00133289
:101120000B9B0293A14B02980340C9010B4312038E
:1011300013430B9310220AA906A804F055FC099B3F
:1011400002939B4A1A409B4B13430993089A0292BD
:10115000994A02990A40089298490A400892984A86
:101160001340A022120313430993301C04F08EFB9A
:1011700085B2002D00D1CCE6280004F05FFB011CF5
:10118000301C04F032FB8721C90504F04EFB04F04B
:101190007DFBC3B21B022D041D430695814D06AB9A
:1011A0003A002100280007F013FB2B6801221100F0
:1011B000A1408A46C943039151468B432B6063008B
:1011C0001B19DB007F498C466344802149010B4396
:1011D00080273F061F601F60231D11009940802358
:1011E0009B011D4329600834A2402A60764A1343BC
:1011F000F02212011A607549072000F067FC0121F6
:10120000072000F039FC634B99460121180007F0D4
:1012100025FA050004A9484607F04EFA0400002309
:101220000093033314222900484607F07FFA102266
:1012300000210EA804F0D2FB80235B020E93F8235A
:101240005B020F938023DB021093C0231B031093D8
:1012500010220EA90AA804F0C7FB22001E320B9B25
:101260000293524B02990B40E1010B4312031343CB
:101270000B9310220AA90EA804F0B6FB119B02934F
:101280004F4A1A40A0231B03134311930F9B029351
:101290004F4B029A13404246120613430F93109B82
:1012A0000293454A1A404B4B13431093434A134051
:1012B00010939B009B083B431093301C04F0E6FA0C
:1012C00087B2002F00D126E6380004F0B7FA011CDF
:1012D000301C04F08AFA8721C90504F0A6FA04F04C
:1012E000D5FAC3B21B023F041F430E97294B984601
:1012F0000EAB22002900404607F06AFA43461B68FD
:1013000001242200AA409346D243029258468343C6
:10131000404603606E007719FF002F4B9C466744E0
:1013200080235B011F4380231B0699463B603B6083
:101330002B1D22009A4080239B0103431A602A0040
:10134000083294401C600D4B00229A60A832920231
:101350000021224804F042FBFFF70EFD7619F6004B
:101360001F4B9C4666441F2232603BE000800540D4
:10137000FFFFFFBF696969697CC000202C710320F1
:1013800080C0002024A500202CA50020A4A50020BA
:101390009CA5002000002050C0E1E44C2C013050FE
:1013A00079040020000030506CA500207F00FEFF73
:1013B0001FFCFFE3C0020004FFFF0AFEFFFFF5C1B0
:1013C000FF7FF0FFD00030502C012050C1040020DE
:1013D000FFFFFFE00000F101D00020502CD10020E1
:1013E000D800205043461B6802990B4059460B43D6
:1013F00041460B6032604B463B603B60074A1368D6
:10140000039919400B0051460B431360FA20012148
:10141000000102F075F90027022691E50000305026
:1014200070B588B0174B1B68174A126817490968CE
:1014300017480068174C2468174D2D68AD00174EEB
:10144000AD590795A400164D645906948000154CBB
:1014500000590590890014480958049192001349D5
:10146000525803929B00124A9B58029316230193F1
:10147000013B0093013B122203210E4804F076FC4D
:1014800008B070BD7CC0002080C0002078C0002063
:1014900088C0002084C000204871032060C0002064
:1014A00050C0002068C0002020C0002048C000209C
:1014B00040C00020E49C002010B584B003AB02AA19
:1014C00001A9524800F01AF9002803D14F495048A9
:1014D00002F01EFA039A0299019800F0D3F86420F2
:1014E00001F032FB04F04EFCFA20C00001F02CFBAE
:1014F000484804F00BFC02F033F9002811D14648AB
:1015000004F004FC454C200006F0EEFF012001F041
:101510001BFB06F075FF200006F0E6FFFFF780FFDB
:1015200017E03F4804F0F2FBFA20400101F00CFB09
:10153000E5E73C4804F0EAFB3B4806F04BFFD023CC
:101540001B061B6DDB07FAD506F04EFF374804F08B
:10155000DDFB374C2368586807F084FA23689868E5
:1015600007F080FA334804F001FC04F00FFCC4B229
:10157000FF210140304804F0F9FB732CD9D0702CC6
:10158000E7D0622C12D0682C13D03F2C11D0652CE0
:1015900012D0672C17D06C2C1CD0742C21D0612C4D
:1015A00026D0662C2BD0FFF73BFFD2E7FFF712FCCB
:1015B000CFE7FFF735FFCCE7204B02222049214837
:1015C000FFF7F4FBC5E7204B022220492048FFF734
:1015D000EDFBBEE71F4B08221F492048FFF7E6FB43
:1015E000B7E71F4B04221F491F48FFF7DFFBB0E797
:1015F0001E4B04221E491F48FFF7D8FBA9E71E4BCC
:1016000002221E491E48FFF7D1FBA2E7C0D4010009
:10161000A89F0020849F002024A00020B10C00205F
:10162000DC9F00205CA00020696969696CA0002033
:1016300060C1002048A0002054A0002040C000202D
:101640007CC000207CA0002048C0002080C000207A
:101650008CA0002020C0002078C000209CA000208A
:1016600068C0002088C00020ACA0002050C000202E
:1016700084C00020C0A0002060C00020487103206A
:10168000D4A00020F0B583B004000D00160000F0D7
:10169000C5F8002801D003B0F0BD154F00973B00FE
:1016A00001220121053001F043FE00962B002200AB
:1016B0000121104801F046FF31006943200003F08A
:1016C0003BFA04000C4B009300220221042001F09D
:1016D0002FFE0094230000220121052001F028FEA6
:1016E00000973B0002220021062001F021FED2E7F4
:1016F000006CDC0200800240001BB700F0B5DE4643
:1017000057464E464546E0B583B080468B469246E6
:101710000193A0235B0099462AE0013C002C1ED0D7
:1017200025007D432900300003F006FA4045F4D13E
:101730002900300003F000FA0029EED1144B4A468C
:1017400053435A46136053461F60019B1C6001209F
:1017500003B0F0BCBB46B246A946A046F0BD013F6F
:10176000002F01D03C00D9E701235B429C46E144B5
:101770004B460F2B09D9074E4B465E43064BF218DA
:10178000064B9A42F0D80727EAE70020E0E7C04678
:10179000001BB700E02E0000508EF4FF50F80C0044
:1017A00010B58300084A944663441C684022624096
:1017B000C02414408022520113431C60C000034B1C
:1017C0009C466044416010BD04C00140004001409F
:1017D00080000B4B9C46604400290DD00823002A52
:1017E0000CD004221343026853400C221340802281
:1017F00052011043036070470023F0E70022F1E735
:1018000004C0014010B501238340D0221206936228
:1018100093610521FFF7C4FF10BD0000034B1B6857
:1018200002201840431E9841C0B2704700C00640D5
:10183000EFF3108072B6034B1B68002BFBD0BFF395
:101840005F8F70472C0100D0BFF35F8F024B0022E7
:101850001A6080F3108870472C0100D0CB08C25C5E
:1018600007231940012088401040431E9841C0B210
:101870007047F8B506000C001500FFF7D9FFE30824
:10188000F718F15C07222240012393400B4205D157
:10189000DBB20B433B70FFF7D7FFF8BD21002800F8
:1018A00002F036F8F0B583B00600019114001F0075
:1018B000FFF7BEFF00E00134BC420CD8E308F51886
:1018C000F35C0721214001228A401A42F3D1D2B2AF
:1018D0001A432A7001E001246442FFF7B5FF002C8F
:1018E00002DB200003B0F0BD019B002BF9D008986B
:1018F00002F00EF870B505000C00FFF799FFE30841
:10190000EE18EA5C07210C400123A340134204D0E7
:101910009A433270FFF798FF70BD034B034A2C3196
:10192000034801F05BFFC046B4A5002034A60020A8
:10193000D4A50020002307E0054A9A189200BFF3BF
:101940005F8F0021116001331F2BF5D97047C0460E
:1019500040000034054A1078431CDBB21370172B8B
:1019600002D9130010221A707047C0468CC00020A4
:1019700000B583B00100044B00931F2318220348D5
:10198000FFF790FF03B000BD44A6002088D00020E0
:10199000074B9B68103080001950BFF35F8FBFF377
:1019A0005F8F044B0021196082F310887047C04696
:1019B00000ED00E0240100D010B5091A081F0A4B01
:1019C0009C466144094A914208D8C30706D4401096
:1019D0004005400D064B184380B210BD054B064A2A
:1019E000A321064801F0FAFEFC070000FE0F0000EC
:1019F00000E0FFFF60A60020ECA8002090A60020D9
:101A000010B5091A04394C08090B08D14905490DCC
:101A1000064A11430180064B2343438010BD054B0A
:101A2000054AAB21054801F0D9FEC04600F0FFFF92
:101A300000F8FFFFECA60020C0A8002090A6002020
:101A400001238340034A10681840431E9841C0B2E6
:101A50007047C04600E100E0002904D0034B186045
:101A6000034B18607047034B1860FBE780E200E00F
:101A700000E100E080E100E010B5012383401800A0
:101A8000FFF7EAFF10BD000001238340014A136005
:101A90007047C04600E200E0024B9B6810308000B7
:101AA000C058704700ED00E010B5FFF7F5FF0028C3
:101AB00005D0054BC01A2F2803D8012010BD0020E7
:101AC000FCE70020FAE7C04690C0002070B5040093
:101AD0000D00EFF3108672B60C4B1B68002BFBD089
:101AE000BFF35F8F2000FFF7D7FF094B984201D06B
:101AF000A84205D1320029002000FFF749FF70BD40
:101B0000044B054A8621054801F068FE240100D0F7
:101B1000CD010010FCA6002020A9002090A60020E6
:101B2000F0B5DE4657464E464546E0B589B081469B
:101B300001911500EFF3108A72B6744B1B68002BED
:101B4000FBD0BFF35F8F724B0027DF57002F40DBC6
:101B50007C00E419A4006F4824180622A2566C4B9E
:101B60001A706D4B9A684B4610339B00D3589846B9
:101B70001E001B1A2F2B38D9684B98452FD105AE64
:101B8000674B33807B009B46D8198000614B984699
:101B9000404402306349FFF70FFF7080624BB3800F
:101BA000FF23B371F571019B07935F44BF00474466
:101BB0000ECE0EC701231C43A0465246414648465E
:101BC000FFF7E6FE09B0F0BCBB46B246A946A04608
:101BD000F0BD564B564AD721564801F0FFFD564BF3
:101BE000534ADE21534801F0F9FDC04340440C2123
:101BF00002F0A2FF002912D101239E43B346330015
:101C00000026DA79AA4211D90621595600290CDB9F
:101C10004A00521892001E003E4B9B18F1E7474BBA
:101C2000434AEA21434801F0D9FD1E00002E3AD074
:101C300005AB434A1A80813A5A800623F356029331
:101C4000002B17DA3F4805AB9B469880029A9A71A1
:101C5000DD71019A0792301D2100FFF7ADFEB080C3
:101C6000B7717B00DB199B002A4FFF185B4607CB3F
:101C700007C7A2E77800C0198000264BC0180430BF
:101C8000321DB388D90A1C2907D15B0559150231C9
:101C900049005118FFF790FED5E72B4B2B4AB12195
:101CA000244801F09BFD05AE1D4B33807B00029361
:101CB000D8198000174A9046020042440392901CB3
:101CC0001849FFF779FE7080039A101D5946FFF7F7
:101CD00073FEB0801E4B5A464146521A524153433E
:101CE0001B0DB371F571019A0792029B9C466744E4
:101CF000BF0047440ECE0EC7114B5A461380813B9E
:101D0000538001231C43A04657E7C046240100D05E
:101D1000CD77032090C0002000ED00E0CD01001041
:101D200000A1FFFFC0C0002001BDFFFF34A70020BD
:101D300008A9002090A600205CA7002084A700200E
:101D40000148000001BD0000F8A70020F8A800200D
:101D5000AAAA0000F0B5CE46474680B583B006007B
:101D60000D00EFF3108872B6564B1B68002BFBD0AA
:101D7000BFF35F8F544B9A6834001034A300D758D8
:101D8000524B9F4207D0AF4200D198E00197504B91
:101D9000FB1A2F2B09D9424639003000FFF7F8FD16
:101DA00003B0C0BCB946B046F0BD3000FFF748FEF6
:101DB000814600213000FFF75FFEBFF35F8FEFF336
:101DC0000581002901D08C4211D10123019C9C4343
:101DD0000022A368AB4212D00622A256002A0DDBD5
:101DE00053009B189B002200394CE418F1E7362180
:101DF000384B394AFF31394801F0F0FC2200AB4240
:101E000056D106256557002D38DB6B005B199A000B
:101E10002F4B9B189A68A260DA79E27106229A56D3
:101E2000A2719B795BB2002B0FDA2D48A0806B006A
:101E30005B199B00264AD3182A4A117899711570AC
:101E400049463000FFF718FEA5E7201D6B005B191F
:101E50009B001F4A9B181A1D9B88D90A1C2907D171
:101E60005B055B15023359005118FFF7A5FDDDE74F
:101E70001D4B1E4AB121194801F0B0FC002912D1B6
:101E8000002A0ED0FF239371194B9380154A1378C3
:101E9000A371184B0E49641A644163431B0D137000
:101EA000CEE70A4FF2E7201D1349FFF7A9FDC7E768
:101EB0006A21124B084AFF31084801F08FFC034F9A
:101EC00069E7C046240100D000ED00E0CD0100101C
:101ED00090C0002010A80020D8A8002090A60020C4
:101EE00001BD0000CD770320F8A70020F8A800204E
:101EF00001BDFFFFAAAA0000CAC0002044A800201C
:101F000070B5012101432E4BCB1A2F2B28D8EFF3AC
:101F10000583002B2BD0EFF3108C72B6294A126880
:101F2000002AFBD0BFF35F8F274A0400244D641BB7
:101F300064416243120D54B2244A92689B00D25805
:101F40008A421BD00022032A32D853009B189B00E0
:101F50001B49CB189B795BB2A3421FD00132F2E739
:101F6000C7211B4B1B4A49001B4801F037FC92213B
:101F70001A4B184AFF31184801F030FC134A926896
:101F80001749D150174B1A7882711C70BFF35F8FBD
:101F90000C4B00221A608CF3108870BD0D005300AA
:101FA000991889006918FF268E710F4A8A80E9E71F
:101FB000D1210E4B074A4900074801F00FFCC046EB
:101FC00090C00020240100D0AAAA000000ED00E08B
:101FD0004CA80020A4A8002090A6002074A80020EF
:101FE000CD010010CD77032001BDFFFF80A80020A8
:101FF0000022044B02E0044902C30132072AFAD945
:102000007047C04600E400E08080808000B583B067
:102010000100064B0093052300220548FFF742FC10
:10202000002801DB1F23181A03B000BD88A8002078
:10203000D2770320024B9C466144890001607047BF
:102040004000003410B50400FFF784FC01002000BC
:10205000FFF7F0FFFF232371BFF35F8F10BD10B5B3
:102060000400FFF777FC01002000FFF7E3FFFF23E8
:10207000237100236371BFF35F8F10BD034B9C4638
:10208000614489000160BFF35F8F704740000034F6
:1020900010B504000120FFF76BFC01002000FFF7E2
:1020A000EDFF10BD70B505000C00080000F000FF4A
:1020B0000949200000F040FEFFF74CFC074B9C460E
:1020C0006044800068602C75D0231B061B786B75FC
:1020D000A400034BE55070BDA9210020400000344E
:1020E0007C7503200A4B1A68EFF3108172B61368EF
:1020F000002BFCD0BFF35F8F054B1B68BFF35F8FD6
:1021000000221A6081F3108840BF00200021704730
:102110009877032010B5002922D003681B7B9942D1
:102120001ED8174B9C466144090183689C46614454
:102130000C684968002A19D003681B7B9A4215D89D
:1021400083680F488446624412019A1810685368E5
:10215000020001208B4201D80ED00020C0B210BD79
:10216000084B094A3C21094801F038FB054B064A57
:102170003C21064801F032FBA242EFD8EDE7C04611
:10218000FFFFFF0F08AB002088AD0020B4AA00209D
:1021900010B500291ED0037B99421BD84B005B1859
:1021A000033B0468A4466344002919D0002A1DD0CB
:1021B000914221D0002A25D0047BA24222D8046873
:1021C00050008018033820188170197800291FD119
:1021D0001A7010BD104B114A6821114801F0FEFA27
:1021E000104B114A6F310E4801F0F8FA0F4B0E4AAE
:1021F00070210B4801F0F2FA0D4B0B4A712108488F
:1022000001F0ECFA044B054A6821054801F0E6FAB2
:1022100041701A70DDE7C0462CAB0020F4AD002001
:1022200048AB0020B0AB0020D0AD0020BCAB0020FC
:10223000C8AB002070B506000D001400002914D0B2
:10224000002A14D0806873689847002806D02200BE
:1022500029003000FFF79CFF280007E02A0021003A
:102260003000FFF795FF200000E0100070BD08006F
:10227000FCE70000F0B583B00500009201930AABC3
:102280001C780BAB1F78002C26D003685A7B944235
:1022900007D10123002B19D1002C3BD1200003B022
:1022A000F0BD002C0CD01A7B944209D81A68630048
:1022B0001B19033BD3189B78002BEBD00123E9E7D4
:1022C0003E4B3F4A68213F4801F088FA3E4B3F4A67
:1022D00067213F4801F082FA03689C7B002CDBD029
:1022E00012D01A7B94420FD862001219033A19686F
:1022F0008C46624451789973002900D1D973002328
:10230000937053701370C7E72C4B2D4A68212D48EA
:1023100001F064FA002C3AD02B681B7B9C4236D823
:102320002C4BE3181B01AA6894466344009A1A6078
:10233000019A5A60089A9A60099ADA602E68002C0D
:102340002BD030D0337B9C422DD863001B19033B2C
:1023500032689446634400229A705A701A70717BF6
:1023600022003000FFF766FF7073844200D095E7CB
:10237000287D009A019B00F027FD061E01D0002F4A
:1023800017D00C9B002B00D188E71E7086E7124BFC
:10239000124A3C210E4801F021FA114B114AA521A5
:1023A000084801F01BFA054B054A6821054801F071
:1023B00015FA2868210000F03FFFE2E72CAB00206F
:1023C000F4AD002048AB0020E0AB002000AE0020C0
:1023D000B4AA0020FFFFFF0F08AB002088AD00204B
:1023E000B0AA0020E4AD0020F0B5DE4657464E46C8
:1023F0004546E0B58BB00990002308938200B54BA9
:10240000D658370052E0B44BB44A3F21B44801F0EB
:10241000E5F9B44BB44A3C21B44801F0DFF9002996
:1024200001D1002869D10021404600F0FBFEA04206
:1024300019D12A686B6806920793AB689846EB68D7
:102440009A464346002B14D0002C18D03B681B7BC7
:102450009C4214D8631EFA68D35C08931B0218438D
:102460003861002015E0A24BA24A8E219F4801F05E
:10247000B5F9A14B9F4A92219C4801F0AFF9994BC5
:102480009E4A4121994801F0A9F900239A469846AD
:1024900000207B68BFF35F8F00221A6086F31088EC
:1024A0004346002B32D1002800D10CE100F000FCA3
:1024B00002000B1EA7DB0020002106900791786820
:1024C000EFF3108672B601680029FCD0BFF35F8F6E
:1024D000396888464C7B002CD7D09AD0097B8C4237
:1024E00097D8874965182D01B9688C4665442868D6
:1024F0006968801A9941002991DD2A686B680998FA
:1025000000F062FC00239A469846C2E7089B1B0233
:102510002343994651461800C04705000E007A68CB
:10252000EFF3108B72B6136859424B41D9B2002BAE
:10253000F9D1BFF35F8F002E1EDB002E46DD3B6915
:10254000002B47D04B456DD100F0B2FB02000B1EB3
:102550006EDB52197341002B70DB002B72DB002104
:102560000491013103910294514601914146009139
:102570003800FFF77FFE4CE03B69002BDDD04B4578
:1025800014D1069A079B521BB341002B14DB002B7E
:1025900016DB00210491013103910294514601910F
:1025A000414600913800FFF765FE32E0554B514A35
:1025B000A1214E4801F012F901225242524BE6E7A6
:1025C000454B464A3F21464801F008F9002E01D10B
:1025D000002DB4D13B68002C50D05A7B944237D1A7
:1025E000012100294AD1DA7B002A4DD19A7B002AA9
:1025F00003D1DA7B002A5AD19C73DC73002C5CD0A7
:102600003B681B7B9C4258D8FA68013C135D013340
:10261000135500233B617A68BFF35F8F13608BF320
:10262000108843E7374B334AA421304801F0D6F8ED
:10263000294B2A4A3F212A4801F0D0F80122524270
:10264000314B8AE7244B254A3F21254801F0C6F843
:10265000002C0DD01A7B94420AD862001219033A5A
:102660001868844662449278002ABAD00121B8E7FB
:10267000264B274A6821274801F0B0F8264B274A05
:10268000F621244801F0AAF8002A0AD0197B8A42D0
:1026900007D851008A18033A19688C46624454706E
:1026A000A4E71A4B1A4A68211A4801F097F81C4B04
:1026B0001A4AFB21174801F091F80A4B0F4A4121B1
:1026C0000A4801F08BF80BB0F0BCBB46B246A946F5
:1026D000A046F0BD7C750320ACA9002054AD0020BD
:1026E000C8A9002008AB002088AD0020B4AA0020B3
:1026F00008AC00206CAD002020AC0020ACAD002068
:10270000FFFFFF0F2CAC0020FFFFFF7F2CAB002052
:10271000F4AD002048AB002068AC0020C0AD002024
:102720008CAC002010B50C4B5B68002B04D00A2148
:102730000A48FFF77FFC10BD074C2300084A102110
:10274000206800F07FFC032000F0A6FA032120009F
:10275000FFF7A8FCEBE7C046D8C00020987703201D
:10276000D51E002010B5064B5B68002B01D0044835
:1027700010BD044B044A5E21044801F02FF8C04606
:10278000D8C00020A0AC002094AD0020B4AA002046
:10279000F0B5DE4657464E464546E0B58BB080461E
:1027A00016001F00149B9A46159B994616AB1B7882
:1027B0009B461F2302AA9446634400221A702BE012
:1027C000002809D042461268127B904204D8421E6B
:1027D0004146C9688A5C41E0404B414A4121414839
:1027E00000F0FCFF07984CE0361BAF41002F07DBE1
:1027F000002F11DA3C4B3D4A3F213D4800F0EEFFEF
:10280000012676423B4FF3E7374B384A3F213848A1
:1028100000F0E4FF002F4FDB43465A68EFF31084CB
:1028200072B6136859424B41D9B20791002BF8D1C7
:10283000BFF35F8F1F3302AA9446634404930023BF
:10284000039302934B4601935346009332003B009F
:102850004046FFF70FFD031EB2D102004146496812
:10286000BFF35F8F00250D6084F31088002B29D003
:102870001F2302A98C4663441B78002BB2D112029D
:102880001043002B20D05B46002B1DD04946D0477B
:1028900004000D0003000B431DD00029A4DB00F051
:1028A00007FA06000F1EAFDB36196F41002FB1DAB1
:1028B000012676420F4FADE70B4B0C4A3F210C48E7
:1028C00000F08CFF012040420BB0F0BCBB46B2468A
:1028D000A946A046F0BD0798F6E7C04608AB002021
:1028E000ACAD0020B4AA0020ACA9002054AD00205B
:1028F000C8A90020FFFFFF7FF8B50400002900D120
:1029000062E04268EFF3108572B6136858424341A3
:10291000D8B2002BF9D1BFF35F8FCBB22268567BC0
:10292000B3421BD10120002848D0206988422BD017
:10293000090AC9B2002B2ED02068007B83422AD816
:10294000581EE668305C88422BD000206368BFF3D5
:102950005F8F00221A6085F31088F8BD002B0DD020
:10296000167BB3420AD85E00F618033E1768BC46D1
:102970006644B678002ED6D00120D4E7134B144A13
:102980006821144800F02AFF2C21134B134AFF3111
:10299000134800F023FF134B134A4121104800F065
:1029A0001DFF1900100000F047FC0028CED199212E
:1029B0000E4B0A4A49000A4800F010FF23698B4277
:1029C000C4D100232361C1E70020C6E72CAB00205F
:1029D000F4AD002048AB0020C4AC00203CAD00208A
:1029E000B4AA002008AB0020ACAD0020E8AC002069
:1029F000407D7047F0B587B006000F00EFF3058308
:102A0000002B1FD106246442E517A4197D418D4295
:102A100002D803D1844201D900240025002D14DB03
:102A20000494059500F044F902000B1E13DBA41A70
:102A30009D41002D17DC14D03000390000F044F91E
:102A400007B0F0BD234800F063FF234B234A3F212A
:102A5000234800F0C3FE204B204A3F21204800F0CD
:102A6000BDFE002CE8D0FFF77DFE0023029301930A
:102A70001C4B0093049A059BFFF78AFE002818DA86
:102A8000DAE7002300E00023002BD5D1164B1A68AB
:102A9000EFF3108172B61368002BFCD0BFF35F8F89
:102AA000114B1B68BFF35F8F00221A6081F31088FF
:102AB00020BF0499059A0D4B5B6A9A42E3D80B48F4
:102AC000806A884203D29A42DBD00123DCE70123EB
:102AD000DAE7C046ECAC0020ACA9002054AD0020E1
:102AE000C8A90020A51E00209877032000400540BB
:102AF00070B504000D0000F0DBF802000B1E0ADBCD
:102B0000200029008018594100290ADB00290CDB2C
:102B1000FFF770FF70BD084B084A3F21084800F0DE
:102B20005DFE012040420749F0E7034B034A3F2185
:102B3000034800F053FEC046ACA9002054AD00206D
:102B4000C8A90020FFFFFF7F10B5FA2292000023E2
:102B5000002102F02DFEFFF7CBFF10BD70B584B051
:102B600005000C00EFF30583002B1ED1FFF7FAFDE3
:102B7000002302930193224B00932A002300FFF7C6
:102B800007FE061E23DD20BFFFF7ECFD3100FFF737
:102B9000B3FE1C4B5B6A9C422DD81A4A926AAA4229
:102BA0002CD29C4225D0012026E0164B5B6A99422C
:102BB00009D8144A926A824207D2994201D0012070
:102BC0001AE0002018E0002016E0012014E00D4B70
:102BD0005B6A9C4209D80B4A926AAA4207D29C427D
:102BE00001D0012008E0002006E0002004E00120E0
:102BF00002E0002000E0002004B070BD0120FBE7EF
:102C0000A51E00200040054070B5EFF30580103888
:102C1000EFF3108C72B61A4B1B68002BFBD0BFF37E
:102C20005F8F01221300834016494B6316490B60E6
:102C3000164909780C00C440224214D0114A546A43
:102C40008200134D5259944206D38200114C1259FE
:102C500099430E4B197007E00A4A031D9B009958CF
:102C60009950002200E00022BFF35F8F044B002147
:102C700019608CF31088002A00D0904770BDC046C0
:102C8000280100D0004005403C700540D17703206A
:102C9000A477032070CF002010B50100024A03483A
:102CA000FEF7E7FD10BDC04620AE0020C877032028
:102CB000044B5B6A034A906A1900536A9942F9D13E
:102CC0007047C04600400540084B5B6A01E0074B77
:102CD0005B6A8B42FBD301E0044B5B6A8B4203D1FE
:102CE000024B9B6A8342F7D37047C04600400540C1
:102CF00070B504000D00FFF7DBFF02000B002000A1
:102D00002900801859418B4202D804D1824202D94D
:102D100001204042C117002902DBFFF7D5FF70BD3B
:102D2000024B034A3F21034800F058FDACA90020A4
:102D3000E4AE0020C8A9002070B504000D00EFF338
:102D4000108672B61B4B1B68002BFBD0BFF35F8F46
:102D5000002D1CD02000FEF79FFE174B83420BD0A6
:102D600019002000FEF7B2FE01212000FEF784FECC
:102D70000123A340114A1360A400114BE550BFF397
:102D80005F8F0C4B00221A6086F3108870BDA20082
:102D90000B4B0021D1500122A2400A490B789343EA
:102DA0000B7005492000FEF7D5FF00212000FEF73B
:102DB00063FEE4E7280100D0C929002038600540FF
:102DC00070CF0020D1770320F0B5DE4600B584B087
:102DD0000400150001921E000293FFF769FF03959E
:102DE0008E4202D84ED185424CD9EFF3108B72B689
:102DF000274B1B68002BFBD0BFF35F8F254A17784A
:102E00000125A540EBB23B431370234B5D63221DAC
:102E100092000199D150A2002049029850501B6A9B
:102E20002B4212D11C4B1B6C2B4208D00020BFF34D
:102E30005F8F174B00221A608BF3108823E0184B2A
:102E4000184AC521184800F0C9FCFFF731FF8E422F
:102E500014D802D1039B834210D80E4B1B78BB427F
:102E60000ED00D4B1D625D631F2004400123A34063
:102E70000E4A1360074B1F701E38D8E70020D6E7B4
:102E80000120D4E7012004B080BCBB46F0BDC046A1
:102E9000280100D0D177032000400540A47703200B
:102EA00044AE0020C8AE002068AE002080E200E002
:102EB000EFF3108C72B60B4B1B68002BFBD0BFF3EB
:102EC0005F8F01238340084A136208490A789A43B6
:102ED0000A70BFF35F8F034B00221A608CF31088D7
:102EE0007047C046280100D000400540D17703203C
:102EF00010B500291ED0037B99421BD84B005B18EC
:102F0000033B0468A4466344002919D0002A1DD05D
:102F1000914221D0002A25D0047BA24222D8046805
:102F200050008018033820188170197800291FD1AB
:102F30001A7010BD104B114A6821114800F04EFC68
:102F4000104B114A6F310E4800F048FC0F4B0E4AEF
:102F500070210B4800F042FC0D4B0B4A71210848D0
:102F600000F03CFC044B054A6821054800F036FCA3
:102F700041701A70DDE7C0462CAB002004B0002081
:102F800048AB0020B0AB0020F0AF0020BCAB00206D
:102F9000C8AB002070B506000D001400002914D045
:102FA000002A14D0806873689847002806D0220051
:102FB00029003000FFF79CFF280007E02A002100CD
:102FC0003000FFF795FF200000E0100070BD080002
:102FD000FCE7000010B50023437301338373037BC8
:102FE000C3730123027B9A4214D9002B0CD0027BBD
:102FF000934209D85A00D218033A01688C466244B9
:103000000133DBB25370EDE70B4B0C4A68210C48DF
:1030100000F0E4FB002A09D0924207D8016853006F
:103020009A18033A8A180023537010BD024B034AC2
:103030006821034800F0D2FB2CAB002004B0002034
:1030400048AB002010B5017342608360FFF7C2FFF8
:1030500010BD000070B50400081E00D170BD00292D
:1030600034D0237B994231D84B005B18033B226854
:10307000944663445A78002AF0D02DD0237B9A429C
:103080002AD853009B18033B21688C4663445D7823
:1030900000215970002825D0237B984222D8430074
:1030A0001B18033B21688C466344002159700100C2
:1030B0002000FFF76FFF060029002000FFF7CAFF7E
:1030C000020031002000FFF765FFC7E7084B094AFF
:1030D0006821094800F082FB054B064A6821064832
:1030E00000F07CFB024B034A6821034800F076FBAA
:1030F0002CAB002004B0002048AB002070B50500C8
:103100000C00160000292FD034D0037B994231D80F
:103110004B005B18033B0268944663445A78002ACC
:103120002ED19A78002A31D11978FFF793FF030046
:10313000002E0AD0EA7B002A2ED1AA7B002A03D1D6
:10314000EA7B002A3BD1AC73EC73002B3DD1002C01
:103150004FD02B7B9C424CD82B6861000C19033C50
:103160001C190023637070BD254B264A3821264860
:1031700000F034FB254B264A6821264800F02EFB40
:10318000254B204A3A21204800F028FB234B1D4ABA
:103190003B211D4800F022FB002A0AD0297B8A42ED
:1031A00007D851008A18033A29688C466244547043
:1031B000C3E7164B164A6821164800F00FFB184B60
:1031C000104A4221104800F009FB002B0BD02A7B4B
:1031D000934208D843001B18033B2A689446634473
:1031E00000229A70B3E7094B094A6821094800F0A8
:1031F000F5FA064B064A6821064800F0EFFAC04689
:10320000FCAE0020DCAF002004AF00202CAB00207F
:1032100004B0002048AB002058AF002080AF002051
:103220008CAC002070B504000A00457B2900FFF734
:1032300065FF6073280070BD70B50400002967D079
:10324000437B8B420ED0002911D0037B99420ED8CC
:103250004B005B18033B0268D0188378002B0CD11D
:10326000002056E00121FFF7DDFF012051E0294B4E
:10327000294A6821294800F0B1FA002B20D0227B8E
:1032800093421DD85A00D318033B2268D2182568F0
:10329000EB5C8B421AD0002B1BD0227B934218D8B8
:1032A0005A00D318033B2268D21853788B4216D0A9
:1032B000002BF0D11A4B1B4A6B211B4800F08EFAF1
:1032C000144B154A6821154800F088FA43781370AA
:1032D00007E0104B104A6821104800F07FFA43784D
:1032E000537000238370437001222000FFF706FF14
:1032F0000200617B814205D02000FFF74BFE607326
:10330000012006E0094B074A7121074800F066FAE0
:10331000002070BD2CAB002004B0002048AB002082
:1033200080A80020C4AF002004AF0020A4AF00207C
:10333000F8B5DE4657464E464546E0B505000F0057
:1033400092460A9A934250D31A0E91461E020A9A46
:1033500000233000494601F02DFC80466C006419C2
:10336000A400304B9C4664446368834200D2606092
:103370002B1FDBB29B46012B3DD9C0239B0123436E
:10338000802212011A60AB00274A9958002907D001
:10339000506901F0D1FB431C5800C0180338FDD21E
:1033A00053465A0123685A40E0231A4080235B01A8
:1033B00023431A605A46012A28D980239B012343BC
:1033C000802212011A6043466360424600233000A7
:1033D000494601F0EFFBAD00134B58510120F0BC02
:1033E000BB46B246A946A046F8BD104B104A332151
:1033F000104800F0F3F9012FBFD1C0239B012343F4
:1034000003221A60A368DB07FCD5C9E7216879406D
:1034100003220A401A60A2680123BB401342FAD07B
:10342000CBE7C046008000408CD0002010B00020C8
:1034300084B0002024B0002030B583B00C2000F010
:1034400011F9FEF7EBF900280DD0002304E09900F4
:103450002D4A2E4888500133092BF8D92A4B2C4A83
:103460005A6203B030BD2B4B00229A6700F080F9FE
:10347000294B01221A60274B5B6C012BFBD1274B98
:1034800003221A60234B9B6B012BFBD1013300936A
:103490000433234A0121234800F054F80523009304
:1034A000214A0121214800F04DF8214B00930022D0
:1034B00002210420FFF73CFF1E4D00952B00002247
:1034C00001210520FFF734FF104C00942300002257
:1034D00000210720FFF72CFF009423000022002189
:1034E0000820FFF725FF0A4B00932300002200214C
:1034F0000920FFF71DFF00952B0000220021062068
:10350000FFF716FFADE7C0468CD00020006CDC0250
:103510001BB70000008000403CB0004030B00040CD
:10352000002F685900800240008C864700C002408E
:10353000001BB700405973078000014BC05870470B
:103540008CD00020F0B5C64600B504000E00170070
:103550001D00374801F0F0FA8046364BFA18364B1A
:103560009A4239D80100380001F0E6FA0200103A18
:1035700098235B009A4235D86B1E062B38D8069BE1
:10358000013B062B34D83F09474537D32D04069B12
:103590001A0315432368002B36DB284B9C4244D08A
:1035A00080225201264B1A60264B1A60264B9B68DC
:1035B00011009943FAD12660A060231DC022920118
:1035C0001A43212313602368002BFCDAE5600823EB
:1035D000136080BCB846F0BD1C4B1D4A11211D482C
:1035E00000F0FCF81C4B1A4A19211A4800F0F6F8B2
:1035F0001A4B174A1C21174800F0F0F8184B144AD0
:103600002321144800F0EAF822683F231340B34214
:10361000C3D1A3681B051B0D8342BED1E368EE2214
:10362000D2021340AB42B8D1D3E780229201B9E76E
:10363000001BB70080E84BD380F8A93200C00240DD
:1036400000E0004000F0004000C0004094B00020C6
:10365000D4B10020F4B0002050B100206CB10020A3
:10366000B8B1002080239B000343014AD362704716
:1036700000800540024B1A68024B5A607047C046F2
:103680006C7503200080054010B50200164B8020A9
:10369000C0051860154B1648186000290AD0154B54
:1036A000E021C9041960002A09D1124B80221206B8
:1036B0001A6010BD0C4BE021C9041960F3E75301F7
:1036C0009B1A9800801800010B4B186080235B0444
:1036D000984202D3084B094A1A60FFF7CBFF054B0B
:1036E0008022D2051A60E4E700B0054008200140BE
:1036F000FCFF010000A005406C750320FFFFFF00E8
:1037000010B5034B034ADA61FFF7BEFF10BDC04698
:10371000008005402131B76A10B5030010000C4A43
:103720008024E4051460002B0DD001221343094AC4
:10373000094CD461094C5C401462516293620021CF
:10374000FFF7A2FF10BD034B0022DA61F7E7C04686
:1037500000B0054000800540D3C007B02D3FF84FB2
:10376000024B9868431E9841C0B2704700800540E4
:10377000064BAA2212011A602F22DA60044B054A76
:103780001A60024B5B68002BFBDA70470040024076
:103790000060024000B0FA0000BEFDE703000A4AE4
:1037A0001268002A08D0084A1068C318074A9A42CB
:1037B00006D3054A13607047034A05491160F2E7D2
:1037C00001204042F7E7C046687103200000042052
:1037D000D477032010B5FFF7DFFF000010B582B0EB
:1037E0000C001900002A0CD0084B002A0BD00192C3
:1037F000009323000200064802F0B8FA0120FFF708
:10380000CBFF044BF1E7034AF1E7C046E0B10020EB
:10381000F0B10020E09C002070B52B4B2B4A1A60C1
:103820002B4B2C4A1A602C4B9A682A4B9343FAD1A3
:103830002A4C01E008CC9847294B9C42FAD3FFF769
:10384000FBFD234B274A1A60234B9B68DB43DB01BC
:10385000FAD1254B40229A675A671A67DA66234CD9
:1038600009E0234B234A87212348FFF7B7FF2000B5
:10387000FEF7E8FB0834214B9C4209D22368002B59
:10388000F5D0012BEDD12000FEF7E9FB0834F2E77B
:103890001B4CA1681B4DC022280002F0A5F8A560B2
:1038A000EFF30583002B00D000BEFEF743F8FEF7D0
:1038B0009FFBFEF737FF144C01E008CC9847134BF1
:1038C0009C42FAD370BDC04600E00040BFCDFBFE75
:1038D00000F00040FE7F3C0000C00040B0C9002066
:1038E000C0C90020FFFFFF0100F00140A0C9002077
:1038F00020B20020B0B2002040B20020B0C90020A9
:1039000000ED00E000000020C0C90020C8C9002070
:103910000FB400B583B0084802F0F8F9049B002BFF
:1039200007D005A90191180002F000FA034802F03F
:10393000EDF90120FFF730FFA0B20020349C0020F9
:10394000704710B5002802D00B684968984710BD31
:103950000100002007E083001B185B00501C08607A
:103960001078C01830380A681378303BDBB2092B66
:10397000F1D97047F0B5DE4657464E464546E0B5AC
:1039800083B093461F000C9B9A460D9C0E9B994654
:103990000F9B9B0703D0B8460F00060022E0019260
:1039A000A34688464E46B9460700B44207D2551C86
:1039B0004B4641462020B84701342A00F5E73D0038
:1039C0004F465C46019B9B46B1464646B84637008B
:1039D0002E0007E0013C551C5346185D4346390054
:1039E000B0472A00002CF5D135003E0047460F9B1A
:1039F0009B0707D4100003B0F0BCBB46B246A946F3
:103A0000A046F0BDB0464E46B9462F005D46531B5A
:103A1000B342EFD2541C4B4641462020B847220007
:103A2000F5E7F0B5CE46474680B585B09446984652
:103A30000C9D0D9C0EAB1B789946109A119B129E03
:103A4000B7071CD4002B0CD0F7070AD54F46002F20
:103A500002D10C37374204D0013B02E030272F550A
:103A60000134944201D21F2CF8D9F70707D59C42A4
:103A700005D21F2C03D830272F550134F5E7F70660
:103A800015D5770505D4002C03D0944224D09C4250
:103A900022D00F9A102A2BD00F9A102A30D00F9ACA
:103AA000022A35D01F2C02D830222A5501341F2C6F
:103AB00005D84A46002A31D02D222A5501340396D2
:103AC00002930194009543466246FFF753FF05B009
:103AD000C0BCB946B046F0BD621E012C06D00F9F97
:103AE000102F01D01400D4E7023CD2E71400D0E735
:103AF000B206D1D41F2CCFD878222A550134D1E771
:103B0000B206CCD51F2CCAD858222A550134C9E791
:103B10001F2CC7D860322A550134C3E7720703D57A
:103B20002B222A550134CAE73207C8D520222A554C
:103B30000134C4E7F0B5DE4657464E464546E0B58B
:103B400093B081468A46089209931CAB10CB1B7830
:103B50009B461E9D219B9846002C03D11023424674
:103B60009A4390468023DB0046461E4042461A4256
:103B700012D0002C22D000260EE03033D9B2771CB0
:103B80000AAB99552900200000F0D6FFAC4216D3AD
:103B90001F2F14D83E0004002900200000F0CCFFA5
:103BA000CBB2092BE9D94246920605D54121C91865
:103BB000C9B20A39C9B2E2E76121F8E727004346F2
:103BC0000693209B05931F9B049303955B460293EA
:103BD00001970AAB0093099B089A51464846FFF7A4
:103BE00020FF13B0F0BCBB46B246A946A046F0BDCC
:103BF000F0B5DE4657464E464546E0B595B00890CE
:103C000009910A920B931E9E1F9C20AB1B789B462A
:103C1000229B9946239D269B9A463300234303D13A
:103C2000103352469A4392468023DB0057461F408A
:103C300052461A4219D0330023432DD0002714E0F6
:103C40003033DAB27B1C98460CABDA554A462B006F
:103C50003000210000F0AEFFA5421FD819D0434626
:103C60001F2B1BD8474606000C004A462B0030008D
:103C7000210000F09FFFD3B2092BE1D952469206F2
:103C800005D54122D218D2B20A3AD2B2DAE761227D
:103C9000F8E7B145E3D901E000239846534606937F
:103CA000259B0593249B04934B4603935B46029309
:103CB000434601930CAB00930B9B0A9A0999089811
:103CC000FFF7AFFE15B0F0BCBB46B246A946A04612
:103CD000F0BD0000F0B5DE4657464E464546E0B51D
:103CE00091B083468A460C9298461A9C08941B9D74
:103CF000099522002B002000290001F0E6F9002898
:103D000000D0E5E001225242D74B2000290001F00B
:103D1000D7F9002800D0DBE001225242D34B20002B
:103D2000290001F0B7F9002800D0D1E000220023DB
:103D3000089E3000099D290001F0ACF9002800D050
:103D4000DDE008980999069007918023DB001E9A10
:103D50001A400D921E9A1A4201D106231C9306980E
:103D6000079904000D000A000600024300D1D1E0CB
:103D7000080D4005400DBE4CA44660440A03120BDA
:103D8000BC4B13431F0001F0B3F9BB4ABB4B01F01E
:103D90003EF9BB4ABB4B01F013F904000D000022B1
:103DA000B94B3000390001F002F9B84AB84B01F0C4
:103DB0002EF902000B002000290001F001F901F0AA
:103DC000AFF9814601F094F904000D00B14AB24BFD
:103DD00001F01DF90022B14B01F0F2F801F0A0F959
:103DE0000600AF4AAF4B2000290001F010F9040093
:103DF0000D00300001F07CF9AB4AAC4B01F007F943
:103E000002000B002000290001F0D1F804000D0091
:103E100002000B0001F0FBF80A900B91A44BF31881
:103E200000261F0522002B002000290001F0C8F801
:103E30000E900F9122002B0000208021C90501F077
:103E4000B6F804000D0000229A4B0A980B9901F075
:103E5000C0F80022984B01F0B3F802000B000A985A
:103E60000B9901F0B6F80022944B01F0A9F802007A
:103E70000B000A980B9901F0ACF802000B0020002F
:103E8000290001F09DF802000B000E980F9901F037
:103E9000A0F80022774B01F093F832003B0001F0CC
:103EA000B6F806000F0004000D00069A079B01F00B
:103EB00007F9002830D001235B429C46E1440022F0
:103EC0007D4B3000390001F084F804000D0023E040
:103ED0001E9B04931D9B03931C9B0293089A099BB2
:103EE0000092019343460C9A5146584600F0FCF864
:103EF00011B0F0BCBB46B246A946A046F0BD0023B7
:103F0000002406930794069680231B069C4665446E
:103F100007951AE7002399464B466333C62B1ED8F4
:103F200004261E9B1B0526D52B0023430FD0644A75
:103F3000644B0698079901F0BBF8002879D000225D
:103F4000614B0698079901F0A5F8002871D01C9BD9
:103F50004B4506DD4A46981A431E1C9303E005268E
:103F6000DFE700231C938023DB001E9A1A431E9276
:103F70000026002399461D9B9E4264D29F1B02236C
:103F80001E9A1A400A921E9A134202D0002E00D0A6
:103F900000274B46002B07D022002B0006980799DC
:103FA00001F017F80690079100220023089809995C
:103FB00001F070F8002848D1444B1E9A1340049336
:103FC00003971C9B0293069B079C00930194434616
:103FD0000C9A5146584600F087F8002E00D187E72A
:103FE0001E9B9B063DD54525441C43460200514679
:103FF0002800D8474B46DA179B18534005220592F4
:10400000013E0496002203920A3202924A46D00FE1
:10401000019000934346220051465846FFF78AFD1F
:104020000A9B002B00D163E702005F460C9E1D9D9A
:1040300054E01C9B002B9ED00D9B002B9BD01C9B07
:10404000013B1C9397E7002799E7069C079D2200F8
:10405000290080200006844661440B0006920793E5
:10406000AAE76525C0E7C046FFFFEF7FFFFFEFFF30
:1040700001FCFFFF0000F03FFB799F501344D33F4A
:10408000B3C8608B288AC63F0000F83F61436F6366
:10409000A787D23F71A379094F930A400000E03F00
:1040A0001655B5BBB16B0240EF39FAFE422EE63F22
:1040B000FF03000000002C400000244000001840D6
:1040C0002D431CEBE2361A3F80842E41FFF7FFFFA1
:1040D000541C434651462020B8472200931BAB4254
:1040E000F6D3100004E7C046F0B5DE4657464E460C
:1040F0004546E0B595B00690079193469946209FB6
:104100001E9A1F9B1000190000F0DFFF002831D11C
:1041100001225242BF4B1E981F9900F0BBFF00289E
:1041200037D101225242BC4B1E981F9900F0C8FFA4
:1041300000283DD10022B94B1E981F9900F0C0FF06
:10414000002850D10022B64B1E981F9900F0A2FF04
:10415000002848D1002200231E981F9900F09AFFE2
:10416000002850D100239846229B5B0500D4B6E07E
:10417000002458E0229B0393219B02930323019385
:10418000A84B00934B465A4607990698FFF7F2FB57
:104190000EE1229B0393219B029304230193A24BE4
:1041A00000934B465A4607990698FFF7E3FBFFE05A
:1041B0000423229A1A4022990B4210D09B4B002ACA
:1041C0000FD0042222990391219902910192009328
:1041D0004B465A4607990698FFF7CCFBE8E0944B0C
:1041E000EDE70322EEE7229B0493219B03930297C2
:1041F0001E9B1F9C009301944B465A4607990698B4
:10420000FFF768FDD4E01E9A1F9B0020002100F0FC
:10421000CEFE1E901F9101239846A5E70CAB3022DD
:104220001A55013F01341F2C01D8092FF6D81E98CA
:104230001F9900F075FF050000F05AFF02000B0007
:104240001E981F9900F0B3FEFA007A4B9B181A686B
:104250005B680A920B9300F0DAFE0890099100F077
:1042600083FF060000F040FF02000B000898099948
:1042700000F09DFE0890099100226F4B00F020FF96
:1042800000282ED00136300000F02EFF02000B0077
:104290000A980B9900F004FF002801D00135002690
:1042A000002F2CD1280000F023FF02000B001E98E5
:1042B0001F9900F07CFE06000F0000225E4B00F00C
:1042C000E9FE002846D100225B4B3000390000F0A7
:1042D000F7FE00283ED1EB073CD501353AE0062732
:1042E00046E70022544B0898099900F0D3FE0028B5
:1042F000D6D1002E01D0F307D2D50136D0E7AA4699
:104300001F2C11D8013F0A21300000F015FC651C5C
:1043100030310CAB19550A21300000F00DFC092E8C
:104320000ED906002C00EBE755461F2C0CD87B1E3F
:10433000002F09D00CAA302111551F000134F4E7D9
:104340002B0055461C00F0E71F2C03D80CAB2E2287
:104350001A5501341F2C10D80A21280000F0C4FB84
:10436000661C30310CAB19550A21280000F0BCFB4B
:10437000051E01D03400EDE734000323229A1340D8
:10438000012B1CD01F2C06D84346002B32D00CAB7F
:104390002D221A550134229B0393219B02930194F1
:1043A0000CAB00934B465A4607990698FFF7E2FA82
:1043B00015B0F0BCBB46B246A946A046F0BD219B55
:1043C000002B13D04346002B02D10C3313420FD0E5
:1043D000219B013B2193190003E00CAB30221A55BD
:1043E00001348C42CED21F2CF7D9CBE72199F8E7C4
:1043F0002199F6E7229B5B0704D50CAB2B221A55BB
:104400000134C8E7229B1B07C5D50CAB20221A55E7
:104410000134C0E7FFFFEFFFFFFFEF7F65CDCD4128
:1044200065CDCDC1CCB20020D0B20020C4B20020F6
:10443000C0B20020B8B400200000E03FF0B5DE4676
:1044400057464E464546E0B593B082468B46904669
:104450001193002900D1EBE200275546119B1878F3
:10446000002800D1E7E2252809D07C1C43463A0009
:104470005946A847119B013311932700EEE70133FA
:1044800011930024119A11780B00203BD8B2102808
:1044900003D88300D048C3589F460B00303BDBB2A3
:1044A000092B2CD92A292FD000230A93119B1A7883
:1044B0002E2A39D000239A46119A1378683BD9B234
:1044C000122976D88B00C549CB589F4601231C433F
:1044D00001321192D6E702231C4301321192D1E737
:1044E00004231C4301321192CCE708231C43013200
:1044F0001192C7E710231C4301321192C2E711A8A1
:10450000FFF726FA0A90D1E71C9B1A1D1C92186827
:10451000002804DB0A90119B01331193C6E70223A4
:104520001C4343420A93F6E78022D20014435A1CEC
:1045300011925A781300303BDBB2092B04D92A2A96
:1045400007D000239A46B7E711A8FFF701FA824681
:10455000B2E71C9B1A1D1C921868002804DB8246D7
:10456000119B01331193A7E70020F8E780235B003C
:104570002343511C119152786C2A01D01C0018E081
:10458000C0239B001C430131119112E0802323437F
:10459000511C11915278682A01D01C0009E0C023F7
:1045A0001C430131119104E080235B001C43013264
:1045B0001192119B18780300253BDAB2532A00D9D7
:1045C0002CE29300864AD3589F4680239B001C43CD
:1045D00001321192EDE780235B001C4301321192FE
:1045E000E7E7782809D0582838D06F2838D06228D3
:1045F00038D010239C430A2600E01026582833D0D8
:10460000692803D0642801D00C229443630501D5A6
:104610000122944369282AD0642828D0A30500D514
:104620009FE0E30500D5B8E0630600D4CAE01C9A19
:10463000111D1C911168FF220A4005940A9B0493E6
:1046400053460393029600230193009243463A0097
:1046500059462800FFF76EFA070027E01026CDE73D
:104660000826CBE70226C9E720221443C8E7A305A2
:1046700020D4E30550D4630666D51C9A111D1C9105
:104680001168FF220A40D317D118594005940A9B9C
:104690000493534603930296D20F0192009143462E
:1046A0003A0059462800FFF745FA0700119B0133ED
:1046B0001193D3E61C9BDA1D07218A4311000831B0
:1046C0001C91116853689C46DB170C930D930C9A50
:1046D0000D9B100048400E90624653400F930E9879
:1046E0000F990C9A0D9B801A99410E900F91089486
:1046F0000A9B07935346069304960023059363464B
:10470000DA0F02920090019143463A005946280080
:10471000FFF76EFA0700C9E71C9A111D1C91126879
:10472000D317D118594005940A9B04935346039319
:104730000296D20F0192009143463A005946280052
:10474000FFF7F8F90700B1E7230605D51C9A111DFC
:104750001C910023D25E96E71C9A111D1C911268D1
:1047600091E71C9BDA1D07218A43110008311C9137
:1047700008940A9B079353460693049600230593D7
:104780000293136854680093019443463A005946D3
:104790002800FFF72DFA070088E71C9A111D1C91CD
:1047A00005940A9B049353460393029600230193B6
:1047B0001368009343463A0059462800FFF7BAF9B8
:1047C000070073E723060DD51C9A111D1C91126872
:1047D0001204120C31E7C046D8B200201CB30020EE
:1047E00068B300201C9A111D1C91126825E7462809
:1047F0001AD01C9B0733072293431A0008321C92DD
:1048000004940A9A0392524602925C681B680093D1
:10481000019443463A0059462800FFF765FC07001B
:10482000119B0133119319E620231C43E1E767280C
:1048300001D0472802D180231B011C43452801D009
:10484000472801D120231C431C9B07330722934395
:104850001A0008321C9204940A9A03925246029259
:104860005C681B680093019443463A00594628004F
:10487000FFF730FA0700119B01331193EEE5022395
:104880001A002240924623421FD001241C9B1A1D6D
:104890001C927A1C9146187843463A005946A8471C
:1048A0005346002B16D1119B013311934F46D5E58A
:1048B000561C434659462020B847230032005C1C52
:1048C0009D42F5D83D001700E0E701233A002F0094
:1048D0000A9DF4E74A46A9460A9D06E0571C43464E
:1048E00059462020C84734003A00661CA542F5D836
:1048F0004D469146D7E71C9B1A1D1C921B68994692
:104900005346002B00D1013B4E4601E00136130017
:104910003278002A02D05A1E002BF7D14B46F21AE9
:1049200010928023DB0026001E401C4203D052451B
:1049300001D95346109302231A0022400B922342BE
:1049400005D03A0037004C46A946554620E03A00CB
:10495000109B5F46B3462E0006E0551C43463900C7
:104960002020B04723002A005C1C0A999942F4D801
:1049700035005E46BB46109437004C46A946554666
:1049800006E01D000134561C43465946C847320014
:104990002078002804D0002FF4D06B1E002DF0D119
:1049A00017004D460B9B002B03D1119B0133119334
:1049B00054E50A9F109B06E0561C434659462020AA
:1049C000A847230032005C1C9F42F5D81700ECE793
:1049D00021231C431C9B1A1D1C921B6800930594E9
:1049E0000823049353460393102302930023019357
:1049F00043463A0059462800FFF79CF80700119BF0
:104A0000013311932AE57C1C43463A005946252080
:104A1000A847119B0133119327001FE57C1C4346D7
:104A20003A005946A847119B01331193270015E519
:104A30000A4B9A4610E5AA46474502D343465A1EFA
:104A400000E03A00434659460020D047380013B0F2
:104A5000F0BCBB46B246A946A046F0BD01370020D7
:104A600000B585B0029003910121009313004A42E2
:104A700002A90248FFF7E2FC05B000BD03370020A1
:104A800001480421014B184700C100207148002053
:104A900010B5010018231B8814221088984710BDF8
:104AA00010B5010018231B8816221088984710BDE6
:104AB000F0B5C64600B507000E0000250123984654
:104AC00000E00135B5420AD2AC003C192068FFF77E
:104AD000DFFF20600028F4D100239846F1E740462C
:104AE00080BCB846F0BD0000124A936F9B0815D2F7
:104AF0009066D166002905D0FFE7FFE7FFE7516F19
:104B0000106F704704B580210906C2175140002874
:104B100000D0C84303F0CEFE002104BDF0B5146EF2
:104B2000556E576F166FFFF7E3FF146655665767AC
:104B30001667F0BD000000D0114A936F9B0813D296
:104B400010665166002905D0FFE7FFE7FFE7516FC8
:104B5000106F704704B5002801D00020C04303F057
:104B6000A9FE002104BDC046F0B5146E556E576F06
:104B7000166FFFF7E5FF1466556657671667F0BDB9
:104B8000000000D094464A4A926F9208624601D2D1
:104B900028E0C046F0B5464E346E756E776F366FBE
:104BA00000F020F89446424A146655665767166727
:104BB0006246F0BD94463E4A926F9208624601D228
:104BC00054E0C046F0B53A4E346E756E776F366F6E
:104BD00000F04CF89446364A1466556657671667D7
:104BE0006246F0BD002B24DB11D000293EDA00B56F
:104BF000C943404200D1013100F038F8C943404276
:104C000000D10131DB43524200D1013300BD002A03
:104C1000EBD1002801D1002905D00020C90FC90718
:104C200001D1C043410800B503F044FE0022002337
:104C300000BD00B500290ADBDB43524200D101333D
:104C400000F014F8C943404200D1013100BDC9430E
:104C5000404200D10131DB43524200D1013300F028
:104C600005F8DB43524200D1013300BD002923D1B6
:104C7000002B18D1002A0CD0BC460D4F38667A663E
:104C800000210023FFE7FFE7FFE77A6F386F6746F1
:104C90007047002801D00748010000B503F00AFE64
:104CA0000022002300BD02000B00002000217047FD
:104CB000000000D0FFFFFFFF002B00D0BFE0130C6F
:104CC00028D1002AE7D080B4114F39667A66FFE711
:104CD000FFE730B4040C7B6F396F1B0423433B6642
:104CE0007A66FFE7FFE7FFE7C04684B27B6F3D6F60
:104CF0001B0423433B667A66FFE7FFE7C0460023B9
:104D00002C042D0C7A6F386F00196941B0BC7047C4
:104D1000000000D0F0B594460025140E01D1120217
:104D20000835140F01D112010435940F01D19200FE
:104D30000235D40F01D152000135D40B0134254F77
:104D40007C66254C3C660E0C93B2FFE7FFE7FFE75D
:104D50003C6F6643360C7703BE467343DF0B5B0440
:104D6000C01AB941130C7343DB18C91ACE08664345
:104D7000360CB64493B273431F0F1B01C01AB941DE
:104D8000130C73431F0B1B05C01AB941860D8F020C
:104D90003E436643360C092D24DB520A7243801AC7
:104DA0007703460A6643360C16235B1BDE40DF4062
:104DB000BF1964466643821B704604350633010002
:104DC000D940A840C01900D30131A24206D2002325
:104DD000F0BD0000000000D0FFFFFFFF121B0130FC
:104DE000F3D3F1E709277F1BFE406446A2B272436A
:104DF000801A00D20139220C7243130C1204821A59
:104E000099410B007046043513370100F940A84062
:104E1000801900D30131002B02D1A2420AD2F0BD89
:104E2000013000D30131121BFAD2013BF8D1A2426A
:104E300000D2F0BD013000D30131121BF7E7F0B50D
:104E40001C0C00D080E00CB400251C0A04D11B020D
:104E5000160E3343120208351C0B04D11B01160F2A
:104E60003343120104359C0B04D19B00960F33434E
:104E700092000235DC0B02D192185B4101351C0017
:104E8000971864410134464F7C66464C3C660E0CD4
:104E9000FFE7FFE7FFE7C0463C6F6643360C77034A
:104EA000BE4697B27743C01B00D20139C01B00D267
:104EB00001399FB27743C91BC91B170C77437E0486
:104EC000FF0B801BB941CE086643360C0C2D33DB3B
:104ED000B644120B1F053A431B0B97B27743C01B16
:104EE00000D201399FB27743C91B170C77433E04A8
:104EF0003F0C801BB941860D8F023E436643292734
:104F00007F1BFE400C3D7746AF40BF1930BCA2B2BC
:104F1000ABB272437343801A9941220C7243130C53
:104F20001204801A994102000B000137001BA941AD
:104F3000F9D2781E0021F0BD0C277F1BFE4077467A
:104F40007F0BAF40FF19E0E700245D1C07D0144F32
:104F50007D663966FFE7FFE7FFE7FFE73C6F95B245
:104F60009EB265436643401BB141150C1E0C654360
:104F7000664336042F0C3E432D04401BB141994239
:104F800004D202000B0020000021F0BD01D19042AC
:104F9000F7D3801A994101349942F2D3F6E7000021
:104FA000000000D0FFFFFFFF48404140484018B4D8
:104FB0001B4B5B68FC46019308BD04DF4350002097
:104FC00018B4174B1B68FC46019308BD00DF4D5019
:104FD00000209446134A926F920809D2624618B490
:104FE0000F4BDB68FC46019308BD0CDF0553002026
:104FF0000C4AF0B5146E556E576F166F6246FFF788
:10500000EEFF084A1466556657671667F0BD18B478
:10501000034B9B68FC46019308BD08DFA9510020A3
:1050200094750320000000D0FFB55040424050402E
:1050300059404B40594000E0FFB5154F4C00640DFE
:1050400003D0BC4204D10C0314D80020090D09057B
:105050005C00640D03D0BC4204D11C030AD80022BA
:105060001B0D1B0501264B4009D44B4003D58B4239
:1050700000D18242FFBD9942FCD19042FFBD0B435B
:10508000DB1803431343F5D0C9434918FFBD0000A3
:10509000FF07000000B5FFF7CFFF804100BDC0460D
:1050A00000B5FFF7C9FF01D9002000BD012000BDF8
:1050B00000B5FFF7B9FF01D9002000BD012000BDF8
:1050C00000B5FFF7B1FF804100BD012040054A0057
:1050D000121804D85A00121801D800207047012075
:1050E00070470020704700000021002805D170475C
:1050F000C1174840401AFAD0C90713B5064B1B68C0
:1051000098470CBC441CA2401005120B0349091B14
:1051100009051943114310BD947603201F040000B4
:1051200010B54C00620D8023D218DB00D21A5B054B
:105130007E2A10DD9E3A13DACC1709034908194379
:105140005242D140640001341532202A05DAD040A1
:105150000843604310BD002010BD0846604310BDE9
:10516000C80FC018013810BD18B4044B5B6AFC4668
:10517000019308BD24DFB55400200000947503207E
:1051800070B513231C78012C14D0012C14DC022CD4
:1051900002DC1F4A1F4B9A641F48FFF779FC1F4B24
:1051A000186070BD99001A481A4A885001331F2BA5
:1051B000F8D9EAE70023FAE71948FFF771FC050080
:1051C0001848FFF76DFC023803789B007F2B19DD30
:1051D000802229000F4800F007FC022CD7D1124B87
:1051E0001A88B5231B029A4209D1104B1A88104B1A
:1051F0009A4204D10F4B1A880F4B9A42C7D0002015
:10520000FEF786FB0D4B0E4A32210E48FEF7E6FAFA
:1052100009500020947503204C330000947603203D
:10522000534400005346000054380000D8380000B2
:10523000494600009C3800005946000008B500208F
:10524000C0B500205CB5002007B56046002800D13D
:1052500000BE01880A0A0230DF2AFAD1C9B28208E8
:1052600004D3028840880004104300E00068024A2A
:105270005050039007BD0000947503200FB403BC89
:105280000CBCF0B50124E407634000E0F0B50C0D60
:10529000CF0F661E3605891B640503D3C943404200
:1052A00000D30131640D03D0661CF60A07D0E41B5D
:1052B00000207F00791C89078912803C24031D0D82
:1052C000DF0F6E1E36059B1B6D0503D3DB43524279
:1052D00000D301336D0D03D06E1CF60A07D0ED1B11
:1052E00000227F007B1C9B079B12803D2D032F1B00
:1052F000661B58D4A446202E46DA20371400BC4042
:105300001D00BD40F24033412A4380185941CB0F64
:1053100005D0C943C0430022644250415141624616
:105320004D0D28D10D0D07D100281FD02419404163
:105330004941013A0D0DF9D0640006D3013000D384
:105340000131002C01D140084000013A0BD4941CDB
:10535000E40A04D112051144DB071944F0BDD90752
:10536000204B194300E0D9070020F0BD0029DDD112
:10537000002CDBD1F0BD0132C6074008CD07284321
:105380004908002EE1D0D9E73C2E29DA203E4037EB
:105390001400BC4000D00124F24014431A00BB406A
:1053A0001C43D317ACE7AC46202F08DA20360400A4
:1053B000B4400D00B540F84039412843A5E73C2FE3
:1053C0000CDA203F40360400B44000D00124F840FD
:1053D00004430800B1400C43C117EAE7100019006C
:1053E000002494E70000F07FF0B50C0D661E360532
:1053F000891BE60A6405640D02D0651CED0A04D021
:10540000002001210905803C2403A4461C0D671ED1
:105410003F05DB1BE70A6405640D02D0651CED0A3D
:1054200004D0002201231B05803C24037740644400
:1054300097B484B296B27443070C7E43150C6F4345
:1054400080B26843361802D3012000043F183004AC
:10545000350C00197D41844688B29AB250430C0C39
:1054600062431F0C7C438EB27E43921902D3012605
:105470003604A4191604170C3618674101BC81B212
:105480009AB25143040C62431B0C5C4380B25843F4
:10549000121802D30120000424181004130C401821
:1054A00063412D185E410020474106BC88B293B28B
:1054B00058430C0C6343120C544389B251435B189C
:1054C00002D301210904641819041A0C0918624155
:1054D0006D1856410020474118BCF902720D114366
:1054E000F0026A0D1043ED020A0D03D16D1940411F
:1054F0004941013B124E9B1B7600B3420ED26D0018
:1055000007D30130002671416646354301D140087A
:1055100040001B05C918E4072144F0BD0BDA013334
:1055200006D1013004D101314F0D01D04908F2E715
:10553000E1070020F0BD013631050020EBE7000057
:10554000FF030000F0B51C0D671E3F05DB1BE70ADB
:105550006405640D02D0661CF60A04D00022012303
:105560001B05803C2403D0252D060026F6432E661D
:105570001E096E66CE0FF619B44649004F0D02D0D3
:105580007E1CF60A03D000200021403F3F033E1B53
:10559000B600B444013F7F05C91B49082E6F013690
:1055A00076089C02950D25437543ED137543AD13A5
:1055B00001356D10F603761B0CB4CC02450D2C435F
:1055C000A2B2B3B25A43270C7B43350C6F43A4B24B
:1055D0006C431B1902D3012424043F191C041D0C25
:1055E000A4187D4124196D41009A91B2ACB2614377
:1055F000170C7C432B0C5F4392B25A43A41802D37E
:1056000001221204BF182204230C52187B41019C72
:105610006C431B19520ED9010A434401A01A81B2EE
:10562000B2B2514303145A43360C734387B27743E3
:10563000D617D21900277E4136049B191704160C81
:105640007F185E417316ED18F30100268033754113
:10565000A90F06D16400690AE8055B0A184309D25C
:105660002FE00422944480337541A90AA8059B0ABF
:10567000184326D3404149412404009A019B0D0060
:105680005543641B4343E41A95B286B27543170C25
:105690007E43030C5F4392B25A43B61802D30122F1
:1056A0001204BF183204330C52197B4152429C4100
:1056B000002C02D40022013051414008CA07104397
:1056C000490802B06246D7079210084BD218084B1F
:1056D0009A4203D212058918C919F0BD0020002A88
:1056E00001DC3900F0BD01331905F5E7FD030000C9
:1056F000FE070000002200B5203200F004F8080088
:1057000000BD000000220B150AD410B5944600F02D
:1057100031F81414013400DA0021CB17144C20475F
:105720000020002170476244343A0CD40C2A07DA76
:1057300004009140904052422032D440214310BD99
:10574000D843D94310BD203207D40C46944052426E
:1057500020321141D040204310BD0800C91720322B
:1057600003D452422032104110BD1800190010BD60
:10577000E75400200A0DCC0F531E1B05C91A520511
:1057800003D3C943404200D30131520D03D0531C0F
:10579000DB0A07D0121B00206400611C89078912F4
:1057A000803A1203014BD21A70470000FF03000039
:1057B00051434343C9188C46110C83B24B4310B478
:1057C000040C614392B280B2504362431C041B0C30
:1057D000001910BC59411304120CC0185141614406
:1057E0007047000048404140484000239C46114B10
:1057F0005B68184700239C460E4B1B6818470E4AEF
:10580000936F9B0804D200239C460A4BDB68184721
:10581000F0B5146E556E576F166FFFF7F4FF064A1A
:105820001466556657671667F0BD00239C46014B0A
:105830009B68184798760320000000D0491A00287A
:1058400008D1084670470000C10FC90700D5404283
:10585000002817D0F44603B40B4B1B68984706BCCE
:1058600081409E384042803107D20B0607D0490064
:10587000490AC0051043084360470130F8E7490A68
:105880008902F5E7704700009476032000239C46C8
:10589000014B5B6A184700009876032070B513230C
:1058A0001D782A48FFF7FCF80400012D11D0012DC6
:1058B00009DDA31E1B789B007F2B40DD8022210089
:1058C000234800F091F82348FFF7E2F8224B1860D4
:1058D00070BD542201001E4800F086F81F4B1A8844
:1058E0001F4B9A421CD1A7239B011A881D4B9A4239
:1058F00016D11D4B1A881D4B9A4211D11C4B1A8888
:1059000094239B019A420BD11A4B1A881A4B9A4244
:1059100006D11A4B1A681A4B9A4201D1152307E097
:105920001848FDF7F5FF99001748094A88500133D8
:105930001F2BF8D9144A064B1A62DA61B7E7134BEA
:10594000134A42211348FDF749FFC0465346000061
:10595000987603204C33000094760320EE29000053
:10596000C40F0000C20D0000962B0000C0B500005F
:10597000182B0000CC2A000010B50000FC2C000001
:1059800051ED8764E09C002059570020D4B50020D9
:105990006CB6002008B6002007B56046002800D18C
:1059A00000BE01880A0A0230DF2AFAD1C9B2820891
:1059B00004D3028840880004104300E00068024AD3
:1059C0005050039007BD0000987603200148042141
:1059D000014B184710C1002071480020014B1B6883
:1059E0001847000010C10020014B5B6818470000F9
:1059F00010C1002010B50300080011001B68984773
:105A000010BD0000F8B507000D001600437D002B07
:105A100002D0002400200CE0036811002800984701
:105A20002DE03B7D10E0022115483B689847601C43
:105A30000134B44214DA002CF3DD2B19013B1B783E
:105A40000D3B5A425341DBB22A5D0A2AF0D1002BAA
:105A5000EED1A042E7DA211A28183B689847E2E71E
:105A6000B04203DA311A28183B689847002E06DD49
:105A7000AD19013D2B780D3B5A4253413B75F8BDA2
:105A8000ECB7002070B505000368002B16D00C4B56
:105A90001C6805E0290004C92000FFF7B3FF246952
:105AA000002C09D02368002BF9D0064B1B68002B73
:105AB000F0D0A342F3D1EDE700232B6070BDC046C8
:105AC0001CD1002028D1002070B505000C000B6807
