:020000041000EA
:1000000000B5324B212058609868022188439860DF
:10001000D860186158612E4B002199600221596106
:100020000121F02299502B49196001219960352056
:1000300000F044F80222904214D00621196600F024
:1000400034F8196E01211966002018661A6600F04E
:100050002CF8196E196E196E052000F02FF8012189
:100060000842F9D1002199601B49196000215960AB
:100070001A491B48016001219960EB211966A021F2
:10008000196600F012F800219960164914480160C1
:100090000121996001BC002800D000471248134993
:1000A000086003C880F30888084703B5996A0420EC
:1000B0000142FBD001200142F8D103BD02B5186610
:1000C0001866FFF7F2FF186E186E02BD00000240BE
:1000D000000000180000070000035F00212200005C
:1000E000F4000018222000A00001001008ED00E03C
:1000F00000000000000000000000000074B24E7A12
:1001000000200420F7010010C3010010C5010010F9
:10011000C1010010C1010010C1010010C101001097
:10012000C1010010C1010010C1010010C701001081
:10013000C1010010C1010010C9010010CB01001065
:10014000CD010010CD010010CD010010CD01001037
:10015000CD010010CD010010CD010010CD01001027
:10016000CD010010CD010010CD010010CD01001017
:10017000CD010010CD010010CD010010CD01001007
:10018000CD010010CD010010CD010010CD010010F7
:10019000CD010010CD010010CD010010CD010010E7
:1001A000CD010010CD010010CD010010CD010010D7
:1001B000CD010010CD010010CD010010CD010010C7
:1001C00000BE00BE00BE00BE00BE00BEEFF3058054
:1001D000103800BEF2EB8871D80200100003001046
:1001E0003402001090A31AE700202249086006C8D4
:1001F00081F30888104720480068002835D10DA4F5
:100200000ECC002902D000F012F8F9E71B491C4A75
:10021000002000E001C19142FCD11A4988471A49E7
:1002200088471A49884700BEFDE701C901C29A42C2
:10023000FBD3704700030010C00000208091002015
:10024000C093001080910020B8CC0020F8CE0010A0
:100250000000042000000420F8CE0010001004204C
:1002600000100420000000007047094800F014F856
:100270000047000008ED00E0000000D0B8CC0020EE
:10028000CC7A0320A9370020911300206537002085
:10029000575600000000000001B40248844601BC2B
:1002A000604700BF214A002006005250ABB36053A4
:1002B000ECB9002006005250861C0302FCB9002055
:1002C000060052505422A29D109F0020050052505B
:0802D000DE65F468F8CE0010B1
:1002D800CC020010C0020010B402001014BA0020B2
:1002E800A802001020BA00202CBA002038BA00203A
:0802F80044BA002074BB002091
:10030000F8B5C04610B5064C2378002B07D1054B35
:10031000002B02D0044800E000BF0123237010BD71
:10032000C0CD00200000000080910020044B10B5DB
:10033000002B03D00349044800E000BF10BDC046B5
:1003400000000000C4CD002080910020174B1B68E6
:10035000002B1BD0154B1B68012B19D0134B1B68AE
:10036000022B17D0114B1B68032B16D00F4B1B68A9
:10037000042B15D00D4B1B68052B14D00B4B1B68A1
:10038000062B01D00A4802E00A4800E064207047CA
:10039000C820FCE7FA204000F9E7FA208000F6E7E1
:1003A000FA20C000F3E70448F1E7C0466CC3002020
:1003B000A0860100102700008813000030B505005A
:1003C0000022074809E0AC5C4440FF2323405B0067
:1003D000044C1B5B000A584001328A42F3DB30BDFB
:1003E000FFFF000024A5002030B505000023FF20FA
:1003F00004E0EA5C4240034CA05C01338B42F8DB32
:1004000030BDC04624A7002010B5002903D0184AEB
:10041000D3680133D36005280BD00938012802D9ED
:10042000144B00221A70002902D0124B00221A70BD
:1004300010BD0F4A5369013353610E4B1B78002BDB
:100440000CD00D4B1B680D489B001C5880221204D9
:1004500022431A50064A936901339361084B1B6883
:10046000023B054A1360034B01221A70DBE7C046CA
:100470001C740320C47A0320587403201CD4002069
:100480005C740320F8B5DE4657464E464546E0B557
:100490008446724B18688000714B8146994400274E
:1004A0000020002100239A4698468022120629E067
:1004B0001F2639E0002D04DB80231B0645461D4323
:1004C000A846002705E000278B4018430131082982
:1004D0000CD00134A64212DD1500D343DB0F5200CD
:1004E000062FE7D0002DEEDB0137EDE74B465146F6
:1004F000585401239B46DA4400200021E9E7634673
:100500009B1B9C466346002B13D0564C23685E1CF5
:1005100026609B00524C1C5963461E2BC8DC1E23D0
:1005200065465B1B9C406646630063405A4000245E
:10053000D0E7002904D080231B0542461A43904689
:100540005346002B64DD4B461A78474B1B78002B33
:1005500036D080239A4204D080235B0542461A435A
:1005600090465346012B53DD4B465B780F241C40CD
:10057000DB431B110F2213409C4223D080239B0599
:1005800042461A439046052C1FD0092C1DD0012C41
:100590001BD00D2C19D0042C17D0082C15D0032CEF
:1005A00005D00B2C03D0072C01D00F2C19D15346AA
:1005B000032B45DC8023DB0442461A43904610E0BF
:1005C0008123C7E7002CDED1D8E7082C26D0082CE1
:1005D00028D05346042B25D08023DB0442461A43FF
:1005E000904641462000FFF70FFF1C4A1368023B6C
:1005F000464651460E439B0019495E505346DD1C4A
:10060000E91703230B405D19AD101368ED18156051
:10061000F0BCBB46B246A946A046F8BD5346052BE2
:10062000DAD1D4E75346991E48460230FFF7DCFE84
:100630000928D6D08023DB0542461A439046D0E7EE
:10064000991E48460230FFF7B9FE084B9842C8D0C1
:100650008023DB0542461A439046C2E75C740320C0
:100660001CD40020507403201C74032001B000002F
:10067000064B1B78002B04D0054B5943090C401A3C
:100680007047044B5943090C401AF9E71C740320C6
:1006900055150000ABAA000082B0EFF3108172B6CE
:1006A000134B1A6880239B015340C02292011340D0
:1006B000104A13600023019302E0019B0133019370
:1006C000019AFA239B009A42F7DBD0231B069B6812
:1006D0000220184043425841C0B2054B1B68C0225B
:1006E00092011340034A136081F3108802B07047EF
:1006F0000C8001400C90014010B50D4805F0EEFB58
:100700000C4B1B6BDB0704D40A4B1B6B9B0707D4FA
:1007100010BD094805F0E2FB064B01221A63F7E71A
:10072000064805F0DBFB034B02221A63F0E7C046E4
:10073000DC9B002000003050E89B0020F89B00204C
:1007400010B50D4805F0CAFB0C4B1B6BDB0704D43E
:100750000A4B1B6B9B0707D410BD094805F0BEFB75
:10076000064B01221A63F7E7054805F0B7FB034B78
:1007700002221A63F0E7C046089C002000002050C7
:10078000E89B0020F0B5C64600B53D4B5868196897
:10079000FFF76EFF070000233A4A13603A4A1360DE
:1007A0003A4A13603A4A13703A4AD360136153616C
:1007B0009361002500262CE0374805F08FFB0026CA
:1007C000344B9E6080BCB846F0BD1368023B9B0072
:1007D0002B4A802189049950012000214042FFF7D3
:1007E00013FE2C4A136901331361464610E0264B71
:1007F0001B68023B9B00224A80214904995000213A
:100800000520FFF701FE46461E4A136801331360B8
:100810000135204B9B68AB42D2DD1A490B68184A60
:100820009B009C580B6801339B0098582100FFF7F0
:100830001FFF80235B029C42BED2134A1368013320
:10084000C01B9B000E4958500E490B6802330B60C9
:10085000136802331360731C9846002CB5D0012C2A
:1008600008D10C4B1B78002BC1D0074A1368023B00
:100870001360C9E7601EFFF705FE4646C8E7C0469D
:100880001CD40020507403205C740320587403208F
:10089000C47A03201C740320149C002010B5024865
:1008A00005F01CFB10BDC046489C002010B5024856
:1008B00005F014FB10BDC046589C002070B5050023
:1008C000002400E00134032C0ADC2100280007F09A
:1008D000F3FF0028F6D02100280007F0BFFFF1E762
:1008E00070BD000070B5074D2800FFF7E7FF064C0C
:1008F0002000FFF7E3FF280008F00AF8200008F0C6
:1009000007F870BD000020500000305010B5094BB2
:100910005B78002B01D1012010BD1221064805F0A3
:100920000DFBD0231B065B685B03FAD4034805F07C
:10093000D5FAF0E71C740320609C0020989C0020EE
:1009400010B50100014805F0F9FA10BDA49C002083
:10095000F8B50F001600800E8506364805F0EEFA51
:1009600004E0354805F0EAFAA5432FD1002D31D037
:100970006C422C4080231B069C42F2D08023DB0576
:100980009C4213D080239B059C4213D080235B059F
:100990009C4213D080231B059C4213D08023DB0490
:1009A0009C42E1D1254805F0C9FADDE7244805F06D
:1009B000C5FAD9E7234805F0C1FAD5E7224805F082
:1009C000BDFAD1E7214805F0B9FACDE7204805F096
:1009D000B5FACBE71F4805F0B1FA002E07DC012E6F
:1009E0000ADC022E0DDC1C4805F078FAF8BD3978D7
:1009F0001A4805F0A3FAF2E77978194805F09EFA4B
:100A0000EFE7184805F09AFA102E02DC00250224C0
:100A100007E001251026FAE7395D134805F08EFA44
:100A20000134A642F8DC002DDDD0104805F086FA2E
:100A3000D9E7C046AC9C0020B49C0020D49C002088
:100A4000BC9C0020C09C0020C49C0020CC9C0020AA
:100A5000FC9C0020DC9C002010A30020E09C0020D7
:100A6000F09C0020009D0020089D0020109D00208B
:100A700010B5C1780902837819434905490D024828
:100A800005F05CFA10BDC046149D002010B5CB786F
:100A90001B028A7813437F221A40DB110F210B407F
:100AA0000100024805F04AFA10BDC046209D002012
:100AB00010B50100014805F041FA10BD309D00203D
:100AC000F8B50E00171F05F039FA002F11D0194B99
:100AD0001D68002D07D01B68012B0ED0154B1B681D
:100AE000022B0FD03D003900134805F027FA0024EF
:100AF00013E0124805F0F2F916E03D00102FF2DD88
:100B00001025F0E73D00402FEDDD4025EBE73319E0
:100B100099780B4805F012FA0134A542F7DCBD4282
:100B200003DB084805F0DAF9F8BD074805F006FAD6
:100B3000F7E7C04674C30020409D0020389D002088
:100B4000489D002010A30020109D002070B584B0A7
:100B500082787F2319001140D209C4782340E40928
:100B60000079012505404008032630400290019598
:100B70000094024805F0E2F904B070BD509D0020D9
:100B800010B50100014805F0D9F910BD309D0020D5
:100B900010B50400084805F0D1F9012C07D0210058
:100BA000064805F0CBF9064805F098F910BD054850
:100BB00005F0C4F9F7E7C046909D0020AC9D0020E9
:100BC00010A30020A49D0020F0B5D6464F4646460F
:100BD000C0B589490B68894A9B009D580B68013351
:100BE0009B009F58864B1B68FB1A9946854B1B68D8
:100BF000FB1A2804000C80460C680234A400A418D8
:100C000062780F261640804A1278002A02D07F4A66
:100C100093422ADC434603339B100233764A116821
:100C20005B181360774B1F60774B01221A7080238B
:100C30005B042A001A4092461D4200D00526744BE0
:100C40001B68022B16D0724B1B68012B14D0714B02
:100C50001B78D8B2002B19D0052E54D12B020ED5FB
:100C60006D4A1368013313604DE06C4805F036F9A6
:100C7000002048E0052EE6D1614B1F60E7E7664B98
:100C80001868FFF785FF634B00221A702B0203D50B
:100C9000634B1B68002B30D04846FFF751FEAB0179
:100CA00036D45346002B41D1AB0E43D1052E48D04C
:100CB000092E4BD0012E4FD00D2E53D0022E57D0DF
:100CC0000A2E5AD00E2E5DD0062E60D0032E63D091
:100CD0000B2E68D0072E6DD00F2E00D171E0042EA0
:100CE00000D175E00C2E00D177E0082E00D179E01C
:100CF000002E00D17BE0012005E00133454A13704E
:100D0000454A13600120E0BCBA46B146A846F0BD92
:100D1000FFF7C4FD3E4B1B68032B04D03A4B002267
:100D20001A700120EFE7364B1F60F7E7FFF7BEFDB3
:100D30000120E8E7424621002800FFF709FE0120D4
:100D4000E1E72000FFF794FE0120DCE721003548B1
:100D5000FFF79CFE0120D6E721003348FFF796FEFF
:100D60000120D0E721003148FFF790FE0120CAE7BB
:100D70002F48FFF79DFE0120C5E72E48FFF798FE9C
:100D80000120C0E72C48FFF793FE0120BBE72B486A
:100D9000FFF78EFE0120B6E7424621002848FFF704
:100DA0008FFE0120AFE7424621002648FFF788FE6C
:100DB0000120A8E7424621002348FFF781FE0120D9
:100DC000A1E7424621002148FFF77AFE01209AE779
:100DD0001F48FFF7D5FE012095E71E48FFF7D0FE1C
:100DE000012090E72000FFF7B1FE01208BE71A48B1
:100DF000FFF7C6FE012086E7407403201CD40020C4
:100E0000547403204C740320C27A0320102700007E
:100E100044740320C37A032048740320B89D002043
:100E20003C740320009E0020049E0020089E0020A9
:100E3000109E0020149E0020189E0020209E00205E
:100E4000289E0020309E0020389E0020409E0020DA
:100E5000489E0020509E0020589E002030B585B04E
:100E6000244B9B68002B1ED0234805F037F8234BFA
:100E70005968234A11605A68224B1A600023224A9B
:100E80001370224A01211170214A1360214A136014
:100E90000024184B9B68A34209DDFFF795FE00284C
:100EA00005D00134F5E71C4805F018F818E0164B9A
:100EB0001B78002B03D0164B1B68002B12D10D4B57
:100EC000D9681A691B78002B11D0144B0948846823
:100ED00045698069029001950094114805F02EF84B
:100EE00005B030BD0A4B1868FFF752FEE7E70D4B1F
:100EF000ECE7C0461C740320889E00201CD4002010
:100F0000547403204C740320C37A0320C27A032054
:100F100048740320407403206C9E0020689E0020CB
:100F20009C9E0020649E002010B50C6801340C606B
:100F3000944207D00A6892009A580100034804F0CE
:100F4000FDFF10BD00220A60F4E7C046F09E0020BD
:100F500070B58EB01C4B1B681C4A12681C4909688E
:100F60001C4800681C4C24681C4D2D68AD001C4EAC
:100F7000AD590C95A4001B4D64590B9480001A4C7C
:100F800000590A9089001948095809919200184996
:100F9000525808929B00174A9B5807931A230693AE
:100FA000123B0593013304930D330393013B0293EA
:100FB000013B0193023B00930F4B104A072110485D
:100FC00004F0BCFF0EB070BD3874032070C3002065
:100FD0006CC300204474032074C300203C740320BD
:100FE00054C3002044C300205CC3002014C300206D
:100FF0003CC3002034C30020049F0020109F002029
:101000001C9F0020F8B507001A2000F0E3FCD02355
:101010001B068022D2045A62C82001F07DFE002403
:101020000CE0D0252D068026F6046E61C82001F064
:1010300073FEAE61C82001F06FFE0134BC42F0DBEC
:10104000D0231B068022D2049A62F8BD70B500241A
:10105000002500E00134FA235B009C4205DAFFF72B
:101060001BFB0028F6D00135F4E75A2D00DC70BDDB
:10107000034803F0F5FD0300002108009847C0462F
:1010800055420000F0B5DE4657464E464546E0B5AF
:10109000A3B059E01F4C8DE01F4991E01F4C9DE02B
:1010A00015239846AAE000234AE10023F0E1DB4340
:1010B000BA001B4953504346002B02D1194BDB6841
:1010C0009846184BDB68013742469B1ABF00144A0A
:1010D000BB50154B9A6801329A60B11C9A685B68E4
:1010E0009A4227D037000E0002F0ACFB0F4B5B6832
:1010F0002342FBD12B0008339B000C4A9B58002B4A
:10110000D5DB0B4A964215D8B100054A8B50013603
:10111000EAE7C046B0A80020A8A80020C0E1644BC0
:101120001CD40020004005401C7403200000205007
:10113000FB9F0200F84A1368F8490B401360FFF761
:1011400021FBF74807F056FAD0231B061B6DDB077F
:10115000FAD507F059FAF34B1B68013B5A42534149
:10116000DBB2F14C2370F14B1B685A425341DBB2A6
:101170006370FFF7EBF8606012AD40220021280099
:1011800004F014FD04AE06220021300004F00EFD30
:10119000E74B1A6804929B88B38004954022E54986
:1011A000280004F009FDFFF79DFB2378002B00D1F8
:1011B00070E7E14CDC4B1B78002B00D16CE7DF497A
:1011C000DF4807F089FB228812AB5A8062889A8038
:1011D000D54B1B78002B00D160E7DA4C052002F0DC
:1011E00093FA04F013FC211C04F0F1FB061CCE4B17
:1011F0001B78002B00D153E714239846FFF772FBAE
:10120000122000F0E7FBD02424068023DB0299465D
:10121000A36200220121122000F0C2FB162000F080
:10122000D9FB8023DB036362A361142000F0D2FBAF
:1012300080235B03A362152000F0CCFB80239B037B
:10124000A3620721162000F093FBBF4A80239B0175
:101250001343F02212011A60BC49092000F01EFD60
:101260000121092000F0F0FCB94D0121280007F010
:1012700005FB0400B749280007F02EFB07000123F7
:10128000009316222100280007F060FB0023009342
:10129000023314222100280007F058FB10220021FD
:1012A0000EA804F083FC80235B020E93F8235B02FC
:1012B0000F934B461093C0231B03109310220EA9CB
:1012C0000AA804F079FCB91C3A0013320B9B029374
:1012D000A14B02980340C9010B43120313430B9324
:1012E00010220AA906A804F067FC099B02939B4AF6
:1012F0001A409B4B13430993089A0292994A029908
:101300000A40089298490A400892984A1340A0223D
:10131000120313430993301C04F0A0FB85B2002D87
:1013200000D1C0E6280004F071FB011C301C04F061
:1013300044FB8721C90504F060FB04F08FFBC3B2B6
:101340001B022D041D430695814D06AB3A0021007A
:10135000280007F04DFB2B6801221100A1408A46AE
:10136000C943039151468B432B6063001B19DB007B
:101370007F498C466344802149010B4380273F0607
:101380001F601F60231D1100994080239B011D4396
:1013900029600834A2402A60764A1343F0221201E1
:1013A0001A607549072000F079FC0121072000F040
:1013B0004BFC634B99460121180007F05FFA0500CA
:1013C00004A9484607F088FA040000230093033379
:1013D00014222900484607F0B9FA102200210EA86D
:1013E00004F0E4FB80235B020E93F8235B020F936F
:1013F0008023DB021093C0231B03109310220EA93D
:101400000AA804F0D9FB22001E320B9B0293524B18
:1014100002990B40E1010B43120313430B9310227B
:101420000AA90EA804F0C8FB119B02934F4A1A4068
:10143000A0231B03134311930F9B02934F4B029A5C
:1014400013404246120613430F93109B0293454AE2
:101450001A404B4B13431093434A134010939B0085
:101460009B083B431093301C04F0F8FA87B2002F1E
:1014700000D11AE6380004F0C9FA011C301C04F04F
:101480009CFA8721C90504F0B8FA04F0E7FAC3B260
:101490001B023F041F430E97294B98460EAB2200B8
:1014A0002900404607F0A4FA43461B6801242200A5
:1014B000AA409346D2430292584683434046036073
:1014C0006E007719FF002F4B9C46674480235B0119
:1014D0001F4380231B0699463B603B602B1D220067
:1014E0009A4080239B0103431A602A0008329440EB
:1014F0001C600D4B00229A60A83292020021224803
:1015000004F054FBFFF702FA7619F6001F4B9C46D5
:1015100066441F2232603BE000800540FFFFFFBFB2
:1015200069696969387403201C74032070C3002042
:1015300024A800202CA80020A4A800209CA80020FB
:1015400000002050C0E1E44C2C013050B9040020D0
:10155000000030506CA800207F00FEFF1FFCFFE35E
:10156000C0020004FFFF0AFEFFFFF5C1FF7FF0FF8E
:10157000D00030502C01205001050020FFFFFFE07B
:101580000000F101D00020501CD40020D8002050D1
:1015900043461B6802990B4059460B4341460B607A
:1015A00032604B463B603B60084A13680399194020
:1015B0000B0051460B431360FA200121000102F099
:1015C00087F900239846002702268DE50000305059
:1015D000F0B585B0FFF73AFD082000F0FBF9D02404
:1015E000240680256D006562A561FA26760030002C
:1015F00001F092FB082000F0EDF96562A561300072
:1016000001F08AFB092000F0E5F98027BF0067623E
:101610006761300001F080FB6561300001F07CFB08
:10162000A7610320FFF7EEFC674C200001F074FB7C
:1016300005F062FB200001F06FFB05F06DFB04F08C
:1016400089FC200001F068FB03AB02AA01A95F48F6
:1016500000F03CF9002803D15C495D4802F040FAF3
:10166000039A0299019800F0F5F8FA20800001F041
:1016700053FB584804F032FC02F05AF9002811D10B
:10168000554804F02BFC554C200007F03DF8012094
:1016900001F042FB06F0C4FF200007F035F8FFF729
:1016A00057FC19E04E4804F019FC4E4801F034FB99
:1016B000E6E74D4804F012FC4C4806F09BFFD023AF
:1016C0001B061B6DDB07FAD506F09EFF484804F0A9
:1016D00005FC484804F002FC474C2368586807F0B2
:1016E000D1FA2368986807F0CDFA444804F026FC44
:1016F00004F034FCC4B2FF210140414804F01EFC58
:10170000732CD6D0532CD4D0702C2AD0502C28D067
:10171000622C2AD0422C28D0682C2CD0482C2AD0DD
:101720003F2C28D0652C29D0452C27D0672C2CD0D5
:10173000472C2AD06C2C2FD04C2C2DD0742C32D08E
:10174000542C30D0612C35D0412C33D0662C01D0B4
:10175000462C36D12B4B02222B492C48FFF7E4FBB9
:10176000BAE72B4804F0BAFBB6E7FFF777FB294846
:1017700004F0B4FBB0E7FFF7EBFBADE7264B02222A
:1017800026492748FFF7D0FBA6E7264B0222264929
:101790002648FFF7C9FB9FE7254B08222549264825
:1017A000FFF7C2FB98E7254B042225492548FFF7A0
:1017B000BBFB91E7244B042224492548FFF7B4FBE7
:1017C0008AE7FFF7C5FB87E7B80B0000C0D401002C
:1017D00040A200201CA20020BCA20020450E002038
:1017E00074A2002070170000F4A2002069696969E2
:1017F00004A3002014A3002050C40020E0A2002075
:10180000ECA2002054C300203C740320D4A3002089
:1018100034A300205CA3002034C3002038740320CC
:101820007CA300203CC3002070C300208CA30020B8
:1018300014C300206CC300209CA300205CC30020C4
:1018400044740320ACA3002044C3002074C30020D0
:10185000C0A30020F0B583B004000D00160000F016
:10186000C5F8002801D003B0F0BD154F00973B002C
:1018700001220121053001F043FE00962B002200D9
:101880000121104801F046FF31006943200003F0B8
:101890003BFA04000C4B009300220221042001F0CB
:1018A0002FFE0094230000220121052001F028FED4
:1018B00000973B0002220021062001F021FED2E722
:1018C000006CDC0200800240001BB700F0B5DE4671
:1018D00057464E464546E0B583B080468B46924615
:1018E0000193A0235B0099462AE0013C002C1ED006
:1018F00025007D432900300003F006FA4045F4D16D
:101900002900300003F000FA0029EED1144B4A46BA
:1019100053435A46136053461F60019B1C600120CD
:1019200003B0F0BCBB46B246A946A046F0BD013F9D
:10193000002F01D03C00D9E701235B429C46E144E3
:101940004B460F2B09D9074E4B465E43064BF21808
:10195000064B9A42F0D80727EAE70020E0E7C046A6
:10196000001BB700E02E0000508EF4FF50F80C0072
:1019700010B58300084A944663441C6840226240C4
:10198000C02414408022520113431C60C000034B4A
:101990009C466044416010BD04C0014000400140CD
:1019A00080000B4B9C46604400290DD00823002A80
:1019B0000CD004221343026853400C2213408022AF
:1019C00052011043036070470023F0E70022F1E763
:1019D00004C0014010B501238340D0221206936257
:1019E00093610521FFF7C4FF10BD0000034B1B6886
:1019F00002201840431E9841C0B2704700C0064004
:101A0000EFF3108072B6034B1B68002BFBD0BFF3C3
:101A10005F8F70472C0100D0BFF35F8F024B002215
:101A20001A6080F3108870472C0100D0CB08C25C8C
:101A300007231940012088401040431E9841C0B23E
:101A40007047F8B506000C001500FFF7D9FFE30852
:101A5000F718F15C07222240012393400B4205D185
:101A6000DBB20B433B70FFF7D7FFF8BD2100280026
:101A700002F036F8F0B583B00600019114001F00A3
:101A8000FFF7BEFF00E00134BC420CD8E308F518B4
:101A9000F35C0721214001228A401A42F3D1D2B2DD
:101AA0001A432A7001E001246442FFF7B5FF002CBD
:101AB00002DB200003B0F0BD019B002BF9D0089899
:101AC00002F00EF870B505000C00FFF799FFE3086F
:101AD000EE18EA5C07210C400123A340134204D016
:101AE0009A433270FFF798FF70BD034B034A2C31C5
:101AF000034801F05BFFC046B4A8002034A90020D1
:101B0000D4A80020002307E0054A9A189200BFF3EA
:101B10005F8F0021116001331F2BF5D97047C0463C
:101B200040000034054A1078431CDBB21370172BB9
:101B300002D9130010221A707047C04678C30020E3
:101B400000B583B00100044B00931F231822034803
:101B5000FFF790FF03B000BD44A9002078D3002018
:101B6000074B9B68103080001950BFF35F8FBFF3A5
:101B70005F8F044B0021196082F310887047C046C4
:101B800000ED00E0240100D010B5091A081F0A4B2F
:101B90009C466144094A914208D8C30706D44010C4
:101BA0004005400D064B184380B210BD054B064A58
:101BB000A321064801F0FAFEFC070000FE0F00001A
:101BC00000E0FFFF60A90020ECAB002090A90020FE
:101BD00010B5091A04394C08090B08D14905490DFB
:101BE000064A11430180064B2343438010BD054B39
:101BF000054AAB21054801F0D9FEC04600F0FFFFC1
:101C000000F8FFFFECA90020C0AB002090A9002045
:101C100001238340034A10681840431E9841C0B214
:101C20007047C04600E100E0002904D0034B186073
:101C3000034B18607047034B1860FBE780E200E03D
:101C400000E100E080E100E010B5012383401800CE
:101C5000FFF7EAFF10BD000001238340014A136033
:101C60007047C04600E200E0024B9B6810308000E5
:101C7000C058704700ED00E010B5FFF7F5FF0028F1
:101C800005D0054BC01A2F2803D8012010BD002015
:101C9000FCE70020FAE7C0467CC3002070B50400D2
:101CA0000D00EFF3108672B60C4B1B68002BFBD0B7
:101CB000BFF35F8F2000FFF7D7FF094B984201D099
:101CC000A84205D1320029002000FFF749FF70BD6E
:101CD000044B054A8621054801F068FE240100D026
:101CE000CD010010FCA9002020AC002090A900200C
:101CF000F0B5DE4657464E464546E0B589B08146CA
:101D000001911500EFF3108A72B6744B1B68002B1B
:101D1000FBD0BFF35F8F724B0027DF57002F40DBF4
:101D20007C00E419A4006F4824180622A2566C4BCC
:101D30001A706D4B9A684B4610339B00D3589846E7
:101D40001E001B1A2F2B38D9684B98452FD105AE92
:101D5000674B33807B009B46D8198000614B9846C7
:101D6000404402306349FFF70FFF7080624BB3803D
:101D7000FF23B371F571019B07935F44BF00474494
:101D80000ECE0EC701231C43A0465246414648468C
:101D9000FFF7E6FE09B0F0BCBB46B246A946A04636
:101DA000F0BD564B564AD721564801F0FFFD564B21
:101DB000534ADE21534801F0F9FDC04340440C2151
:101DC00002F0A2FF002912D101239E43B346330043
:101DD0000026DA79AA4211D90621595600290CDBCE
:101DE0004A00521892001E003E4B9B18F1E7474BE9
:101DF000434AEA21434801F0D9FD1E00002E3AD0A3
:101E000005AB434A1A80813A5A800623F35602935F
:101E1000002B17DA3F4805AB9B469880029A9A71CF
:101E2000DD71019A0792301D2100FFF7ADFEB080F1
:101E3000B7717B00DB199B002A4FFF185B4607CB6D
:101E400007C7A2E77800C0198000264BC0180430ED
:101E5000321DB388D90A1C2907D15B0559150231F7
:101E600049005118FFF790FED5E72B4B2B4AB121C3
:101E7000244801F09BFD05AE1D4B33807B0002938F
:101E8000D8198000174A9046020042440392901CE1
:101E90001849FFF779FE7080039A101D5946FFF725
:101EA00073FEB0801E4B5A464146521A524153436C
:101EB0001B0DB371F571019A0792029B9C46674412
:101EC000BF0047440ECE0EC7114B5A461380813BCC
:101ED000538001231C43A04657E7C046240100D08D
:101EE000C57A03207CC3002000ED00E0CD01001086
:101EF00000A1FFFFACC3002001BDFFFF34AA0020FA
:101F000008AC002090A900205CAA002084AA002030
:101F10000148000001BD0000F8AA0020F8AB002035
:101F2000AAAA0000F0B5CE46474680B583B00600A9
:101F30000D00EFF3108872B6564B1B68002BFBD0D8
:101F4000BFF35F8F544B9A6834001034A300D75806
:101F5000524B9F4207D0AF4200D198E00197504BBF
:101F6000FB1A2F2B09D9424639003000FFF7F8FD44
:101F700003B0C0BCB946B046F0BD3000FFF748FE24
:101F8000814600213000FFF75FFEBFF35F8FEFF364
:101F90000581002901D08C4211D10123019C9C4371
:101FA0000022A368AB4212D00622A256002A0DDB03
:101FB00053009B189B002200394CE418F1E73621AE
:101FC000384B394AFF31394801F0F0FC2200AB426E
:101FD00056D106256557002D38DB6B005B199A003A
:101FE0002F4B9B189A68A260DA79E27106229A5602
:101FF000A2719B795BB2002B0FDA2D48A0806B0099
:102000005B199B00264AD3182A4A117899711570DA
:1020100049463000FFF718FEA5E7201D6B005B194D
:102020009B001F4A9B181A1D9B88D90A1C2907D19F
:102030005B055B15023359005118FFF7A5FDDDE77D
:102040001D4B1E4AB121194801F0B0FC002912D1E4
:10205000002A0ED0FF239371194B9380154A1378F1
:10206000A371184B0E49641A644163431B0D13702E
:10207000CEE70A4FF2E7201D1349FFF7A9FDC7E796
:102080006A21124B084AFF31084801F08FFC034FC8
:1020900069E7C046240100D000ED00E0CD0100104A
:1020A0007CC3002010AB0020D8AB002090A90020FA
:1020B00001BD0000C57A0320F8AA0020F8AB00207B
:1020C00001BDFFFFAAAA0000B6C3002044AB002058
:1020D00070B5012101432E4BCB1A2F2B28D8EFF3DB
:1020E0000583002B2BD0EFF3108C72B6294A1268AF
:1020F000002AFBD0BFF35F8F274A0400244D641BE6
:1021000064416243120D54B2244A92689B00D25833
:102110008A421BD00022032A32D853009B189B000E
:102120001B49CB189B795BB2A3421FD00132F2E767
:10213000C7211B4B1B4A49001B4801F037FC922169
:102140001A4B184AFF31184801F030FC134A9268C4
:102150001749D150174B1A7882711C70BFF35F8FEB
:102160000C4B00221A608CF3108870BD0D005300D8
:10217000991889006918FF268E710F4A8A80E9E74D
:10218000D1210E4B074A4900074801F00FFCC04619
:102190007CC30020240100D0AAAA000000ED00E0CA
:1021A0004CAB0020A4AB002090A9002074AB002011
:1021B000CD010010C57A032001BDFFFF80AB0020D8
:1021C0000022044B02E0044902C30132072AFAD973
:1021D0007047C04600E400E08080808000B583B096
:1021E0000100064B0093052300220548FFF742FC3F
:1021F000002801DB1F23181A03B000BD88AB0020A4
:10220000CA7A0320024B9C466144890001607047F2
:102210004000003410B50400FFF784FC01002000EA
:10222000FFF7F0FFFF232371BFF35F8F10BD10B5E1
:102230000400FFF777FC01002000FFF7E3FFFF2316
:10224000237100236371BFF35F8F10BD034B9C4666
:10225000614489000160BFF35F8F70474000003424
:1022600010B504000120FFF76BFC01002000FFF710
:10227000EDFF10BD70B505000C00080000F000FF78
:102280000949200000F040FEFFF74CFC074B9C463C
:102290006044800068602C75D0231B061B786B752A
:1022A000A400034BE55070BD7923002040000034AA
:1022B000747803200A4B1A68EFF3108172B6136822
:1022C000002BFCD0BFF35F8F054B1B68BFF35F8F04
:1022D00000221A6081F3108840BF0020002170475F
:1022E000907A032010B5002922D003681B7B994205
:1022F0001ED8174B9C466144090183689C46614483
:102300000C684968002A19D003681B7B9A4215D8CB
:1023100083680F488446624412019A181068536813
:10232000020001208B4201D80ED00020C0B210BDA7
:10233000084B094A3C21094801F038FB054B064A85
:102340003C21064801F032FBA242EFD8EDE7C0463F
:10235000FFFFFF0F08AE002088B00020B4AD0020C2
:1023600010B500291ED0037B99421BD84B005B1887
:10237000033B0468A4466344002919D0002A1DD0F9
:10238000914221D0002A25D0047BA24222D80468A1
:1023900050008018033820188170197800291FD147
:1023A0001A7010BD104B114A6821114801F0FEFA55
:1023B000104B114A6F310E4801F0F8FA0F4B0E4ADC
:1023C00070210B4801F0F2FA0D4B0B4A71210848BD
:1023D00001F0ECFA044B054A6821054801F0E6FAE1
:1023E00041701A70DDE7C0462CAE0020F4B000202A
:1023F00048AE0020B0AE0020D0B00020BCAE00201F
:10240000C8AE002070B506000D001400002914D0DD
:10241000002A14D0806873689847002806D02200EC
:1024200029003000FFF79CFF280007E02A00210068
:102430003000FFF795FF200000E0100070BD08009D
:10244000FCE70000F0B583B00500009201930AABF1
:102450001C780BAB1F78002C26D003685A7B944263
:1024600007D10123002B19D1002C3BD1200003B050
:10247000F0BD002C0CD01A7B944209D81A68630076
:102480001B19033BD3189B78002BEBD00123E9E702
:102490003E4B3F4A68213F4801F088FA3E4B3F4A95
:1024A00067213F4801F082FA03689C7B002CDBD057
:1024B00012D01A7B94420FD862001219033A19689D
:1024C0008C46624451789973002900D1D973002356
:1024D000937053701370C7E72C4B2D4A68212D4819
:1024E00001F064FA002C3AD02B681B7B9C4236D852
:1024F0002C4BE3181B01AA6894466344009A1A60A7
:10250000019A5A60089A9A60099ADA602E68002C3B
:102510002BD030D0337B9C422DD863001B19033B5A
:1025200032689446634400229A705A701A70717B24
:1025300022003000FFF766FF7073844200D095E7F9
:10254000287D009A019B00F027FD061E01D0002F78
:1025500017D00C9B002B00D188E71E7086E7124B2A
:10256000124A3C210E4801F021FA114B114AA521D3
:10257000084801F01BFA054B054A6821054801F09F
:1025800015FA2868210000F03FFFE2E72CAE00209A
:10259000F4B0002048AE0020E0AE002000B10020E2
:1025A000B4AD0020FFFFFF0F08AE002088B0002070
:1025B000B0AD0020E4B00020F0B5DE4657464E46F0
:1025C0004546E0B58BB00990002308938200B54BD7
:1025D000D658370052E0B44BB44A3F21B44801F01A
:1025E000E5F9B44BB44A3C21B44801F0DFF90029C5
:1025F00001D1002869D10021404600F0FBFEA04235
:1026000019D12A686B6806920793AB689846EB6805
:102610009A464346002B14D0002C18D03B681B7BF5
:102620009C4214D8631EFA68D35C08931B021843BB
:102630003861002015E0A24BA24A8E219F4801F08C
:10264000B5F9A14B9F4A92219C4801F0AFF9994BF3
:102650009E4A4121994801F0A9F900239A469846DB
:1026600000207B68BFF35F8F00221A6086F310881A
:102670004346002B32D1002800D10CE100F000FCD1
:1026800002000B1EA7DB002000210690079178684E
:10269000EFF3108672B601680029FCD0BFF35F8F9C
:1026A000396888464C7B002CD7D09AD0097B8C4265
:1026B00097D8874965182D01B9688C466544286804
:1026C0006968801A9941002991DD2A686B68099828
:1026D00000F062FC00239A469846C2E7089B1B0262
:1026E0002343994651461800C04705000E007A68FA
:1026F000EFF3108B72B6136859424B41D9B2002BDD
:10270000F9D1BFF35F8F002E1EDB002E46DD3B6943
:10271000002B47D04B456DD100F0B2FB02000B1EE1
:102720006EDB52197341002B70DB002B72DB002132
:102730000491013103910294514601914146009167
:102740003800FFF77FFE4CE03B69002BDDD04B45A6
:1027500014D1069A079B521BB341002B14DB002BAC
:1027600016DB00210491013103910294514601913D
:10277000414600913800FFF765FE32E0554B514A63
:10278000A1214E4801F012F901225242524BE6E7D4
:10279000454B464A3F21464801F008F9002E01D139
:1027A000002DB4D13B68002C50D05A7B944237D1D5
:1027B000012100294AD1DA7B002A4DD19A7B002AD7
:1027C00003D1DA7B002A5AD19C73DC73002C5CD0D5
:1027D0003B681B7B9C4258D8FA68013C135D01336F
:1027E000135500233B617A68BFF35F8F13608BF34F
:1027F000108843E7374B334AA421304801F0D6F81C
:10280000294B2A4A3F212A4801F0D0F8012252429E
:10281000314B8AE7244B254A3F21254801F0C6F871
:10282000002C0DD01A7B94420AD862001219033A88
:102830001868844662449278002ABAD00121B8E729
:10284000264B274A6821274801F0B0F8264B274A33
:10285000F621244801F0AAF8002A0AD0197B8A42FE
:1028600007D851008A18033A19688C46624454709C
:10287000A4E71A4B1A4A68211A4801F097F81C4B32
:102880001A4AFB21174801F091F80A4B0F4A4121DF
:102890000A4801F08BF80BB0F0BCBB46B246A94623
:1028A000A046F0BD74780320ACAC002054B00020EA
:1028B000C8AC002008AE002088B00020B4AD0020D5
:1028C00008AF00206CB0002020AF0020ACB000208A
:1028D000FFFFFF0F2CAF0020FFFFFF7F2CAE00207B
:1028E000F4B0002048AE002068AF0020C0B0002047
:1028F0008CAF002010B50C4B5B68002B04D00A2174
:102900000A48FFF77FFC10BD074C2300084A10213E
:10291000206800F07FFC032000F0A6FA03212000CD
:10292000FFF7A8FCEBE7C046C4C30020907A032061
:10293000A520002010B5064B5B68002B01D0044891
:1029400010BD044B044A5E21044801F02FF8C04634
:10295000C4C30020A0AF002094B00020B4AD00207C
:10296000F0B5DE4657464E464546E0B58BB080464C
:1029700016001F00149B9A46159B994616AB1B78B0
:102980009B461F2302AA9446634400221A702BE040
:10299000002809D042461268127B904204D8421E99
:1029A0004146C9688A5C41E0404B414A4121414867
:1029B00000F0FCFF07984CE0361BAF41002F07DB0F
:1029C000002F11DA3C4B3D4A3F213D4800F0EEFF1D
:1029D000012676423B4FF3E7374B384A3F213848D0
:1029E00000F0E4FF002F4FDB43465A68EFF31084FA
:1029F00072B6136859424B41D9B20791002BF8D1F6
:102A0000BFF35F8F1F3302AA9446634404930023ED
:102A1000039302934B4601935346009332003B00CD
:102A20004046FFF70FFD031EB2D102004146496840
:102A3000BFF35F8F00250D6084F31088002B29D031
:102A40001F2302A98C4663441B78002BB2D11202CB
:102A50001043002B20D05B46002B1DD04946D047A9
:102A600004000D0003000B431DD00029A4DB00F07F
:102A700007FA06000F1EAFDB36196F41002FB1DADF
:102A8000012676420F4FADE70B4B0C4A3F210C4815
:102A900000F08CFF012040420BB0F0BCBB46B246B8
:102AA000A946A046F0BD0798F6E7C04608AE00204C
:102AB000ACB00020B4AD0020ACAC002054B000207D
:102AC000C8AC0020FFFFFF7FF8B50400002900D14B
:102AD00062E04268EFF3108572B6136858424341D2
:102AE000D8B2002BF9D1BFF35F8FCBB22268567BEF
:102AF000B3421BD10120002848D0206988422BD046
:102B0000090AC9B2002B2ED02068007B83422AD844
:102B1000581EE668305C88422BD000206368BFF303
:102B20005F8F00221A6085F31088F8BD002B0DD04E
:102B3000167BB3420AD85E00F618033E1768BC46FF
:102B40006644B678002ED6D00120D4E7134B144A41
:102B50006821144800F02AFF2C21134B134AFF313F
:102B6000134800F023FF134B134A4121104800F093
:102B70001DFF1900100000F047FC0028CED199215C
:102B80000E4B0A4A49000A4800F010FF23698B42A5
:102B9000C4D100232361C1E70020C6E72CAE00208A
:102BA000F4B0002048AE0020C4AF00203CB00020AC
:102BB000B4AD002008AE0020ACB00020E8AF00208B
:102BC000407D7047F0B587B006000F00EFF3058336
:102BD000002B1FD106246442E517A4197D418D42C4
:102BE00002D803D1844201D900240025002D14DB32
:102BF0000494059500F044F902000B1E13DBA41A9F
:102C00009D41002D17DC14D03000390000F044F94C
:102C100007B0F0BD234800F063FF234B234A3F2158
:102C2000234800F0C3FE204B204A3F21204800F0FB
:102C3000BDFE002CE8D0FFF77DFE00230293019338
:102C40001C4B0093049A059BFFF78AFE002818DAB4
:102C5000DAE7002300E00023002BD5D1164B1A68D9
:102C6000EFF3108172B61368002BFCD0BFF35F8FB7
:102C7000114B1B68BFF35F8F00221A6081F310882D
:102C800020BF0499059A0D4B5B6A9A42E3D80B4822
:102C9000806A884203D29A42DBD00123DCE7012319
:102CA000DAE7C046ECAF0020ACAC002054B0002006
:102CB000C8AC002075200020907A03200040054019
:102CC00070B504000D0000F0DBF802000B1E0ADBFB
:102CD000200029008018594100290ADB00290CDB5B
:102CE000FFF770FF70BD084B084A3F21084800F00D
:102CF0005DFE012040420749F0E7034B034A3F21B4
:102D0000034800F053FEC046ACAC002054B0002095
:102D1000C8AC0020FFFFFF7F10B5FA22920000230D
:102D2000002102F02DFEFFF7CBFF10BD70B584B07F
:102D300005000C00EFF30583002B1ED1FFF7FAFD11
:102D4000002302930193224B00932A002300FFF7F4
:102D500007FE061E23DD20BFFFF7ECFD3100FFF765
:102D6000B3FE1C4B5B6A9C422DD81A4A926AAA4257
:102D70002CD29C4225D0012026E0164B5B6A99425A
:102D800009D8144A926A824207D2994201D001209E
:102D90001AE0002018E0002016E0012014E00D4B9E
:102DA0005B6A9C4209D80B4A926AAA4207D29C42AB
:102DB00001D0012008E0002006E0002004E001200E
:102DC00002E0002000E0002004B070BD0120FBE71D
:102DD000752000200040054070B5EFF305801038E5
:102DE000EFF3108C72B61A4B1B68002BFBD0BFF3AD
:102DF0005F8F01221300834016494B6316490B6015
:102E0000164909780C00C440224214D0114A546A71
:102E10008200134D5259944206D38200114C12592C
:102E200099430E4B197007E00A4A031D9B009958FD
:102E30009950002200E00022BFF35F8F044B002175
:102E400019608CF31088002A00D0904770BDC046EE
:102E5000280100D0004005403C700540C97A03209D
:102E60009C7A032060D2002010B50100024A03487A
:102E7000FEF7E7FD10BDC04620B10020C07A032058
:102E8000044B5B6A034A906A1900536A9942F9D16C
:102E90007047C04600400540084B5B6A01E0074BA5
:102EA0005B6A8B42FBD301E0044B5B6A8B4203D12C
:102EB000024B9B6A8342F7D37047C04600400540EF
:102EC00070B504000D00FFF7DBFF02000B002000CF
:102ED0002900801859418B4202D804D1824202D97C
:102EE00001204042C117002902DBFFF7D5FF70BD6A
:102EF000024B034A3F21034800F058FDACAC0020D0
:102F0000E4B10020C8AC002070B504000D00EFF360
:102F1000108672B61B4B1B68002BFBD0BFF35F8F74
:102F2000002D1CD02000FEF79FFE174B83420BD0D4
:102F300019002000FEF7B2FE01212000FEF784FEFA
:102F40000123A340114A1360A400114BE550BFF3C5
:102F50005F8F0C4B00221A6086F3108870BDA200B0
:102F60000B4B0021D1500122A2400A490B78934318
:102F70000B7005492000FEF7D5FF00212000FEF769
:102F800063FEE4E7280100D0992B0020386005405B
:102F900060D20020C97A0320F0B5DE4600B584B0C7
:102FA0000400150001921E000293FFF769FF0395CC
:102FB0008E4202D84ED185424CD9EFF3108B72B6B7
:102FC000274B1B68002BFBD0BFF35F8F254A177878
:102FD0000125A540EBB23B431370234B5D63221DDB
:102FE00092000199D150A2002049029850501B6ACA
:102FF0002B4212D11C4B1B6C2B4208D00020BFF37C
:103000005F8F174B00221A608BF3108823E0184B58
:10301000184AC521184800F0C9FCFFF731FF8E425D
:1030200014D802D1039B834210D80E4B1B78BB42AD
:103030000ED00D4B1D625D631F2004400123A34091
:103040000E4A1360074B1F701E38D8E70020D6E7E2
:103050000120D4E7012004B080BCBB46F0BDC046CF
:10306000280100D0C97A0320004005409C7A032043
:1030700044B10020C8B1002068B1002080E200E027
:10308000EFF3108C72B60B4B1B68002BFBD0BFF319
:103090005F8F01238340084A136208490A789A43E4
:1030A0000A70BFF35F8F034B00221A608CF3108805
:1030B0007047C046280100D000400540C97A03206F
:1030C00010B500291ED0037B99421BD84B005B181A
:1030D000033B0468A4466344002919D0002A1DD08C
:1030E000914221D0002A25D0047BA24222D8046834
:1030F00050008018033820188170197800291FD1DA
:103100001A7010BD104B114A6821114800F04EFC96
:10311000104B114A6F310E4800F048FC0F4B0E4A1D
:1031200070210B4800F042FC0D4B0B4A71210848FE
:1031300000F03CFC044B054A6821054800F036FCD1
:1031400041701A70DDE7C0462CAE002004B30020A9
:1031500048AE0020B0AE0020F0B20020BCAE00208F
:10316000C8AE002070B506000D001400002914D070
:10317000002A14D0806873689847002806D022007F
:1031800029003000FFF79CFF280007E02A002100FB
:103190003000FFF795FF200000E0100070BD080030
:1031A000FCE7000010B50023437301338373037BF6
:1031B000C3730123027B9A4214D9002B0CD0027BEB
:1031C000934209D85A00D218033A01688C466244E7
:1031D0000133DBB25370EDE70B4B0C4A68210C480E
:1031E00000F0E4FB002A09D0924207D8016853009E
:1031F0009A18033A8A180023537010BD024B034AF1
:103200006821034800F0D2FB2CAE002004B300205C
:1032100048AE002010B5017342608360FFF7C2FF23
:1032200010BD000070B50400081E00D170BD00295B
:1032300034D0237B994231D84B005B18033B226882
:10324000944663445A78002AF0D02DD0237B9A42CA
:103250002AD853009B18033B21688C4663445D7851
:1032600000215970002825D0237B984222D84300A2
:103270001B18033B21688C466344002159700100F0
:103280002000FFF76FFF060029002000FFF7CAFFAC
:10329000020031002000FFF765FFC7E7084B094A2D
:1032A0006821094800F082FB054B064A6821064860
:1032B00000F07CFB024B034A6821034800F076FBD8
:1032C0002CAE002004B3002048AE002070B50500ED
:1032D0000C00160000292FD034D0037B994231D83E
:1032E0004B005B18033B0268944663445A78002AFB
:1032F0002ED19A78002A31D11978FFF793FF030075
:10330000002E0AD0EA7B002A2ED1AA7B002A03D104
:10331000EA7B002A3BD1AC73EC73002B3DD1002C2F
:103320004FD02B7B9C424CD82B6861000C19033C7E
:103330001C190023637070BD254B264A382126488E
:1033400000F034FB254B264A6821264800F02EFB6E
:10335000254B204A3A21204800F028FB234B1D4AE8
:103360003B211D4800F022FB002A0AD0297B8A421B
:1033700007D851008A18033A29688C466244547071
:10338000C3E7164B164A6821164800F00FFB184B8E
:10339000104A4221104800F009FB002B0BD02A7B79
:1033A000934208D843001B18033B2A6894466344A1
:1033B00000229A70B3E7094B094A6821094800F0D6
:1033C000F5FA064B064A6821064800F0EFFAC046B7
:1033D000FCB10020DCB2002004B200202CAE0020A2
:1033E00004B3002048AE002058B2002080B2002074
:1033F0008CAF002070B504000A00457B2900FFF760
:1034000065FF6073280070BD70B50400002967D0A7
:10341000437B8B420ED0002911D0037B99420ED8FA
:103420004B005B18033B0268D0188378002B0CD14B
:10343000002056E00121FFF7DDFF012051E0294B7C
:10344000294A6821294800F0B1FA002B20D0227BBC
:1034500093421DD85A00D318033B2268D21825681E
:10346000EB5C8B421AD0002B1BD0227B934218D8E6
:103470005A00D318033B2268D21853788B4216D0D7
:10348000002BF0D11A4B1B4A6B211B4800F08EFA1F
:10349000144B154A6821154800F088FA43781370D8
:1034A00007E0104B104A6821104800F07FFA43787B
:1034B000537000238370437001222000FFF706FF42
:1034C0000200617B814205D02000FFF74BFE607354
:1034D000012006E0094B074A7121074800F066FA0F
:1034E000002070BD2CAE002004B3002048AE0020A8
:1034F00080AB0020C4B2002004B20020A4B200209F
:10350000F8B5DE4657464E464546E0B505000F0085
:1035100092460A9A934250D31A0E91461E020A9A74
:1035200000233000494601F02DFC80466C006419F0
:10353000A400304B9C4664446368834200D26060C0
:103540002B1FDBB29B46012B3DD9C0239B0123439C
:10355000802212011A60AB00274A9958002907D02F
:10356000506901F0D1FB431C5800C0180338FDD24C
:1035700053465A0123685A40E0231A4080235B01D6
:1035800023431A605A46012A28D980239B012343EA
:10359000802212011A6043466360424600233000D5
:1035A000494601F0EFFBAD00134B58510120F0BC30
:1035B000BB46B246A946A046F8BD104B104A33217F
:1035C000104800F0F3F9012FBFD1C0239B01234322
:1035D00003221A60A368DB07FCD5C9E7216879409C
:1035E00003220A401A60A2680123BB401342FAD0AA
:1035F000CBE7C046008000407CD3002010B3002001
:1036000084B3002024B3002030B583B00C2000F038
:1036100011F9FEF7EBF900280DD0002304E0990022
:103620002D4A2E4888500133092BF8D92A4B2C4AB1
:103630005A6203B030BD2B4B00229A6700F080F92C
:10364000294B01221A60274B5B6C012BFBD1274BC6
:1036500003221A60234B9B6B012BFBD10133009398
:103660000433234A0121234800F054F80523009332
:10367000214A0121214800F04DF8214B00930022FE
:1036800002210420FFF73CFF1E4D00952B00002275
:1036900001210520FFF734FF104C00942300002285
:1036A00000210720FFF72CFF0094230000220021B7
:1036B0000820FFF725FF0A4B00932300002200217A
:1036C0000920FFF71DFF00952B0000220021062096
:1036D000FFF716FFADE7C0467CD30020006CDC028C
:1036E0001BB70000008000403CB0004030B00040FC
:1036F000002F685900800240008C864700C00240BD
:10370000001BB700405973078000014BC058704739
:103710007CD30020F0B5C64600B504000E001700AB
:103720001D00374801F0F0FA8046364BFA18364B48
:103730009A4239D80100380001F0E6FA0200103A46
:1037400098235B009A4235D86B1E062B38D8069B0F
:10375000013B062B34D83F09474537D32D04069B40
:103760001A0315432368002B36DB284B9C4244D0B8
:1037700080225201264B1A60264B1A60264B9B680A
:1037800011009943FAD12660A060231DC022920146
:103790001A43212313602368002BFCDAE560082319
:1037A000136080BCB846F0BD1C4B1D4A11211D485A
:1037B00000F0FCF81C4B1A4A19211A4800F0F6F8E0
:1037C0001A4B174A1C21174800F0F0F8184B144AFE
:1037D0002321144800F0EAF822683F231340B34243
:1037E000C3D1A3681B051B0D8342BED1E368EE2243
:1037F000D2021340AB42B8D1D3E780229201B9E79D
:10380000001BB70080E84BD380F8A93200C002400B
:1038100000E0004000F0004000C0004094B30020F1
:10382000D4B40020F4B3002050B400206CB40020C5
:10383000B8B4002080239B000343014AD362704741
:1038400000800540024B1A68024B5A607047C04620
:10385000647803200080054010B50200164B8020DC
:10386000C0051860154B1648186000290AD0154B82
:10387000E021C9041960002A09D1124B80221206E6
:103880001A6010BD0C4BE021C9041960F3E7530125
:103890009B1A9800801800010B4B186080235B0472
:1038A000984202D3084B094A1A60FFF7CBFF054B39
:1038B0008022D2051A60E4E700B0054008200140EC
:1038C000FCFF010000A0054064780320FFFFFF001B
:1038D00010B5034B034ADA61FFF7BEFF10BDC046C7
:1038E000008005402131B76A10B5030010000C4A72
:1038F0008024E4051460002B0DD001221343094AF3
:10390000094CD461094C5C401462516293620021FD
:10391000FFF7A2FF10BD034B0022DA61F7E7C046B4
:1039200000B0054000800540D3C007B02D3FF84FE0
:10393000024B9868431E9841C0B270470080054012
:10394000064BAA2212011A602F22DA60044B054AA4
:103950001A60024B5B68002BFBDA704700400240A4
:103960000060024000B0FA0000BEFDE703000A4A12
:103970001268002A08D0084A1068C318074A9A42F9
:1039800006D3054A13607047034A05491160F2E700
:1039900001204042F7E7C046607403200000042085
:1039A000CC7A032010B5FFF7DFFF000010B582B01E
:1039B0000C001900002A0CD0084B002A0BD00192F1
:1039C000009323000200064802F0B8FA0120FFF736
:1039D000CBFF044BF1E7034AF1E7C046E0B4002017
:1039E000F0B40020EC9E002070B52B4B2B4A1A60DF
:1039F0002B4B2C4A1A602C4B9A682A4B9343FAD1D2
:103A00002A4C01E008CC9847294B9C42FAD3FFF797
:103A1000FBFD234B274A1A60234B9B68DB43DB01EA
:103A2000FAD1254B40229A675A671A67DA66234C07
:103A300009E0234B234A87212348FFF7B7FF2000E3
:103A4000FEF7E8FB0834214B9C4209D22368002B87
:103A5000F5D0012BEDD12000FEF7E9FB0834F2E7A9
:103A60001B4CA1681B4DC022280002F0A5F8A560E0
:103A7000EFF30583002B00D000BEFEF743F8FEF7FE
:103A80009FFBFEF737FF144C01E008CC9847134B1F
:103A90009C42FAD370BDC04600E00040BFCDFBFEA3
:103AA00000F00040FE7F3C0000C00040A0CC0020A1
:103AB000B0CC0020FFFFFF0100F0014090CC0020BF
:103AC00020B50020B0B5002040B50020A0CC0020DB
:103AD00000ED00E000000020B0CC0020B8CC0020B9
:103AE0000FB400B583B0084802F0F8F9049B002B2E
:103AF00007D005A90191180002F000FA034802F06E
:103B0000EDF90120FFF730FFA0B5002018A200203A
:103B1000704710B5002802D00B684968984710BD5F
:103B20000100002007E083001B185B00501C0860A8
:103B30001078C01830380A681378303BDBB2092B94
:103B4000F1D97047F0B5DE4657464E464546E0B5DA
:103B500083B093461F000C9B9A460D9C0E9B994682
:103B60000F9B9B0703D0B8460F00060022E001928E
:103B7000A34688464E46B9460700B44207D2551CB4
:103B80004B4641462020B84701342A00F5E73D0066
:103B90004F465C46019B9B46B1464646B8463700B9
:103BA0002E0007E0013C551C5346185D4346390082
:103BB000B0472A00002CF5D135003E0047460F9B48
:103BC0009B0707D4100003B0F0BCBB46B246A94621
:103BD000A046F0BDB0464E46B9462F005D46531B89
:103BE000B342EFD2541C4B4641462020B847220036
:103BF000F5E7F0B5CE46474680B585B09446984681
:103C00000C9D0D9C0EAB1B789946109A119B129E31
:103C1000B7071CD4002B0CD0F7070AD54F46002F4E
:103C200002D10C37374204D0013B02E030272F5538
:103C30000134944201D21F2CF8D9F70707D59C42D2
:103C400005D21F2C03D830272F550134F5E7F7068E
:103C500015D5770505D4002C03D0944224D09C427E
:103C600022D00F9A102A2BD00F9A102A30D00F9AF8
:103C7000022A35D01F2C02D830222A5501341F2C9D
:103C800005D84A46002A31D02D222A550134039600
:103C900002930194009543466246FFF753FF05B037
:103CA000C0BCB946B046F0BD621E012C06D00F9FC5
:103CB000102F01D01400D4E7023CD2E71400D0E763
:103CC000B206D1D41F2CCFD878222A550134D1E79F
:103CD000B206CCD51F2CCAD858222A550134C9E7C0
:103CE0001F2CC7D860322A550134C3E7720703D5A9
:103CF0002B222A550134CAE73207C8D520222A557B
:103D00000134C4E7F0B5DE4657464E464546E0B5B9
:103D100093B081468A46089209931CAB10CB1B785E
:103D20009B461E9D219B9846002C03D110234246A2
:103D30009A4390468023DB0046461E4042461A4284
:103D400012D0002C22D000260EE03033D9B2771CDE
:103D50000AAB99552900200000F0D6FFAC4216D3DB
:103D60001F2F14D83E0004002900200000F0CCFFD3
:103D7000CBB2092BE9D94246920605D54121C91893
:103D8000C9B20A39C9B2E2E76121F8E72700434620
:103D90000693209B05931F9B049303955B46029318
:103DA00001970AAB0093099B089A51464846FFF7D2
:103DB00020FF13B0F0BCBB46B246A946A046F0BDFA
:103DC000F0B5DE4657464E464546E0B595B00890FC
:103DD00009910A920B931E9E1F9C20AB1B789B4659
:103DE000229B9946239D269B9A463300234303D169
:103DF000103352469A4392468023DB0057461F40B9
:103E000052461A4219D0330023432DD0002714E024
:103E10003033DAB27B1C98460CABDA554A462B009D
:103E20003000210000F0AEFFA5421FD819D0434654
:103E30001F2B1BD8474606000C004A462B003000BB
:103E4000210000F09FFFD3B2092BE1D95246920620
:103E500005D54122D218D2B20A3AD2B2DAE76122AB
:103E6000F8E7B145E3D901E00023984653460693AD
:103E7000259B0593249B04934B4603935B46029337
:103E8000434601930CAB00930B9B0A9A099908983F
:103E9000FFF7AFFE15B0F0BCBB46B246A946A04640
:103EA000F0BD0000F0B5DE4657464E464546E0B54B
:103EB00091B083468A460C9298461A9C08941B9DA2
:103EC000099522002B002000290001F0E6F90028C6
:103ED00000D0E5E001225242D74B2000290001F03A
:103EE000D7F9002800D0DBE001225242D34B20005A
:103EF000290001F0B7F9002800D0D1E0002200230A
:103F0000089E3000099D290001F0ACF9002800D07E
:103F1000DDE008980999069007918023DB001E9A3E
:103F20001A400D921E9A1A4201D106231C9306983C
:103F3000079904000D000A000600024300D1D1E0F9
:103F4000080D4005400DBE4CA44660440A03120B08
:103F5000BC4B13431F0001F0B3F9BB4ABB4B01F04C
:103F60003EF9BB4ABB4B01F013F904000D000022DF
:103F7000B94B3000390001F002F9B84AB84B01F0F2
:103F80002EF902000B002000290001F001F901F0D8
:103F9000AFF9814601F094F904000D00B14AB24B2B
:103FA00001F01DF90022B14B01F0F2F801F0A0F987
:103FB0000600AF4AAF4B2000290001F010F90400C1
:103FC0000D00300001F07CF9AB4AAC4B01F007F971
:103FD00002000B002000290001F0D1F804000D00C0
:103FE00002000B0001F0FBF80A900B91A44BF318B0
:103FF00000261F0522002B002000290001F0C8F830
:104000000E900F9122002B0000208021C90501F0A5
:10401000B6F804000D0000229A4B0A980B9901F0A3
:10402000C0F80022984B01F0B3F802000B000A9888
:104030000B9901F0B6F80022944B01F0A9F80200A8
:104040000B000A980B9901F0ACF802000B0020005D
:10405000290001F09DF802000B000E980F9901F065
:10406000A0F80022774B01F093F832003B0001F0FA
:10407000B6F806000F0004000D00069A079B01F039
:1040800007F9002830D001235B429C46E14400221E
:104090007D4B3000390001F084F804000D0023E06E
:1040A0001E9B04931D9B03931C9B0293089A099BE0
:1040B0000092019343460C9A5146584600F0FCF892
:1040C00011B0F0BCBB46B246A946A046F0BD0023E5
:1040D000002406930794069680231B069C4665449D
:1040E00007951AE7002399464B466333C62B1ED823
:1040F00004261E9B1B0526D52B0023430FD0644AA4
:10410000644B0698079901F0BBF8002879D000228B
:10411000614B0698079901F0A5F8002871D01C9B07
:104120004B4506DD4A46981A431E1C9303E00526BC
:10413000DFE700231C938023DB001E9A1A431E92A4
:104140000026002399461D9B9E4264D29F1B02239A
:104150001E9A1A400A921E9A134202D0002E00D0D4
:1041600000274B46002B07D022002B00069807990A
:1041700001F017F80690079100220023089809998A
:1041800001F070F8002848D1444B1E9A1340049364
:1041900003971C9B0293069B079C00930194434644
:1041A0000C9A5146584600F087F8002E00D187E758
:1041B0001E9B9B063DD54525441C434602005146A7
:1041C0002800D8474B46DA179B1853400522059222
:1041D000013E0496002203920A3202924A46D00F10
:1041E000019000934346220051465846FFF78AFD4E
:1041F0000A9B002B00D163E702005F460C9E1D9DC9
:1042000054E01C9B002B9ED00D9B002B9BD01C9B35
:10421000013B1C9397E7002799E7069C079D220026
:10422000290080200006844661440B000692079313
:10423000AAE76525C0E7C046FFFFEF7FFFFFEFFF5E
:1042400001FCFFFF0000F03FFB799F501344D33F78
:10425000B3C8608B288AC63F0000F83F61436F6394
:10426000A787D23F71A379094F930A400000E03F2E
:104270001655B5BBB16B0240EF39FAFE422EE63F50
:10428000FF03000000002C40000024400000184004
:104290002D431CEBE2361A3F80842E41FFF7FFFFCF
:1042A000541C434651462020B8472200931BAB4282
:1042B000F6D3100004E7C046F0B5DE4657464E463A
:1042C0004546E0B595B00690079193469946209FE4
:1042D0001E9A1F9B1000190000F0DFFF002831D14B
:1042E00001225242BF4B1E981F9900F0BBFF0028CD
:1042F00037D101225242BC4B1E981F9900F0C8FFD3
:1043000000283DD10022B94B1E981F9900F0C0FF34
:10431000002850D10022B64B1E981F9900F0A2FF32
:10432000002848D1002200231E981F9900F09AFF10
:10433000002850D100239846229B5B0500D4B6E0AC
:10434000002458E0229B0393219B029303230193B3
:10435000A84B00934B465A4607990698FFF7F2FB85
:104360000EE1229B0393219B029304230193A24B12
:1043700000934B465A4607990698FFF7E3FBFFE088
:104380000423229A1A4022990B4210D09B4B002AF8
:104390000FD0042222990391219902910192009356
:1043A0004B465A4607990698FFF7CCFBE8E0944B3A
:1043B000EDE70322EEE7229B0493219B03930297F0
:1043C0001E9B1F9C009301944B465A4607990698E2
:1043D000FFF768FDD4E01E9A1F9B0020002100F02B
:1043E000CEFE1E901F9101239846A5E70CAB30220C
:1043F0001A55013F01341F2C01D8092FF6D81E98F9
:104400001F9900F075FF050000F05AFF02000B0035
:104410001E981F9900F0B3FEFA007A4B9B181A6899
:104420005B680A920B9300F0DAFE0890099100F0A5
:1044300083FF060000F040FF02000B000898099976
:1044400000F09DFE0890099100226F4B00F020FFC4
:1044500000282ED00136300000F02EFF02000B00A5
:104460000A980B9900F004FF002801D001350026BE
:10447000002F2CD1280000F023FF02000B001E9813
:104480001F9900F07CFE06000F0000225E4B00F03A
:10449000E9FE002846D100225B4B3000390000F0D5
:1044A000F7FE00283ED1EB073CD501353AE0062760
:1044B00046E70022544B0898099900F0D3FE0028E3
:1044C000D6D1002E01D0F307D2D50136D0E7AA46C7
:1044D0001F2C11D8013F0A21300000F015FC651C8B
:1044E00030310CAB19550A21300000F00DFC092EBB
:1044F0000ED906002C00EBE755461F2C0CD87B1E6E
:10450000002F09D00CAA302111551F000134F4E707
:104510002B0055461C00F0E71F2C03D80CAB2E22B5
:104520001A5501341F2C10D80A21280000F0C4FBB2
:10453000661C30310CAB19550A21280000F0BCFB79
:10454000051E01D03400EDE734000323229A134006
:10455000012B1CD01F2C06D84346002B32D00CABAD
:104560002D221A550134229B0393219B029301941F
:104570000CAB00934B465A4607990698FFF7E2FAB0
:1045800015B0F0BCBB46B246A946A046F0BD219B83
:10459000002B13D04346002B02D10C3313420FD013
:1045A000219B013B2193190003E00CAB30221A55EB
:1045B00001348C42CED21F2CF7D9CBE72199F8E7F2
:1045C0002199F6E7229B5B0704D50CAB2B221A55E9
:1045D0000134C8E7229B1B07C5D50CAB20221A5516
:1045E0000134C0E7FFFFEFFFFFFFEF7F65CDCD4157
:1045F00065CDCDC1CCB50020D0B50020C4B500201C
:10460000C0B50020B8B700200000E03FF0B5DE469E
:1046100057464E464546E0B593B082468B46904697
:104620001193002900D1EBE200275546119B187821
:10463000002800D1E7E2252809D07C1C43463A0037
:104640005946A847119B013311932700EEE7013328
:1046500011930024119A11780B00203BD8B2102836
:1046600003D88300D048C3589F460B00303BDBB2D1
:10467000092B2CD92A292FD000230A93119B1A78B1
:104680002E2A39D000239A46119A1378683BD9B262
:10469000122976D88B00C549CB589F4601231C436D
:1046A00001321192D6E702231C4301321192D1E765
:1046B00004231C4301321192CCE708231C4301322E
:1046C0001192C7E710231C4301321192C2E711A8CF
:1046D000FFF726FA0A90D1E71C9B1A1D1C92186856
:1046E000002804DB0A90119B01331193C6E70223D3
:1046F0001C4343420A93F6E78022D20014435A1C1B
:1047000011925A781300303BDBB2092B04D92A2AC4
:1047100007D000239A46B7E711A8FFF701FA8246AF
:10472000B2E71C9B1A1D1C921868002804DB824605
:10473000119B01331193A7E70020F8E780235B006A
:104740002343511C119152786C2A01D01C0018E0AF
:10475000C0239B001C430131119112E080232343AD
:10476000511C11915278682A01D01C0009E0C02325
:104770001C430131119104E080235B001C43013292
:104780001192119B18780300253BDAB2532A00D905
:104790002CE29300864AD3589F4680239B001C43FB
:1047A00001321192EDE780235B001C43013211922C
:1047B000E7E7782809D0582838D06F2838D0622801
:1047C00038D010239C430A2600E01026582833D006
:1047D000692803D0642801D00C229443630501D5D5
:1047E0000122944369282AD0642828D0A30500D543
:1047F0009FE0E30500D5B8E0630600D4CAE01C9A48
:10480000111D1C911168FF220A4005940A9B049314
:1048100053460393029600230193009243463A00C5
:1048200059462800FFF76EFA070027E01026CDE76B
:104830000826CBE70226C9E720221443C8E7A305D0
:1048400020D4E30550D4630666D51C9A111D1C9133
:104850001168FF220A40D317D118594005940A9BCA
:104860000493534603930296D20F0192009143465C
:104870003A0059462800FFF745FA0700119B01331B
:104880001193D3E61C9BDA1D07218A4311000831DE
:104890001C91116853689C46DB170C930D930C9A7E
:1048A0000D9B100048400E90624653400F930E98A7
:1048B0000F990C9A0D9B801A99410E900F910894B4
:1048C0000A9B079353460693049600230593634679
:1048D000DA0F02920090019143463A0059462800AF
:1048E000FFF76EFA0700C9E71C9A111D1C911268A8
:1048F000D317D118594005940A9B04935346039348
:104900000296D20F0192009143463A005946280080
:10491000FFF7F8F90700B1E7230605D51C9A111D2A
:104920001C910023D25E96E71C9A111D1C911268FF
:1049300091E71C9BDA1D07218A43110008311C9165
:1049400008940A9B07935346069304960023059305
:104950000293136854680093019443463A00594601
:104960002800FFF72DFA070088E71C9A111D1C91FB
:1049700005940A9B049353460393029600230193E4
:104980001368009343463A0059462800FFF7BAF9E6
:10499000070073E723060DD51C9A111D1C911268A0
:1049A0001204120C31E7C046D8B500201CB6002016
:1049B00068B600201C9A111D1C91126825E7462834
:1049C0001AD01C9B0733072293431A0008321C920B
:1049D00004940A9A0392524602925C681B68009300
:1049E000019443463A0059462800FFF765FC07004A
:1049F000119B0133119319E620231C43E1E767283B
:104A000001D0472802D180231B011C43452801D037
:104A1000472801D120231C431C9B073307229343C3
:104A20001A0008321C9204940A9A03925246029287
:104A30005C681B680093019443463A00594628007D
:104A4000FFF730FA0700119B01331193EEE50223C3
:104A50001A002240924623421FD001241C9B1A1D9B
:104A60001C927A1C9146187843463A005946A8474A
:104A70005346002B16D1119B013311934F46D5E5B8
:104A8000561C434659462020B847230032005C1C80
:104A90009D42F5D83D001700E0E701233A002F00C2
:104AA0000A9DF4E74A46A9460A9D06E0571C43467C
:104AB00059462020C84734003A00661CA542F5D864
:104AC0004D469146D7E71C9B1A1D1C921B689946C0
:104AD0005346002B00D1013B4E4601E00136130046
:104AE0003278002A02D05A1E002BF7D14B46F21A18
:104AF00010928023DB0026001E401C4203D052454A
:104B000001D95346109302231A0022400B922342EC
:104B100005D03A0037004C46A946554620E03A00F9
:104B2000109B5F46B3462E0006E0551C43463900F5
:104B30002020B04723002A005C1C0A999942F4D82F
:104B400035005E46BB46109437004C46A946554694
:104B500006E01D000134561C43465946C847320042
:104B60002078002804D0002FF4D06B1E002DF0D147
:104B700017004D460B9B002B03D1119B0133119362
:104B800054E50A9F109B06E0561C434659462020D8
:104B9000A847230032005C1C9F42F5D81700ECE7C1
:104BA00021231C431C9B1A1D1C921B680093059417
:104BB0000823049353460393102302930023019385
:104BC00043463A0059462800FFF79CF80700119B1E
:104BD000013311932AE57C1C43463A0059462520AF
:104BE000A847119B0133119327001FE57C1C434606
:104BF0003A005946A847119B01331193270015E548
:104C00000A4B9A4610E5AA46474502D343465A1E28
:104C100000E03A00434659460020D047380013B020
:104C2000F0BCBB46B246A946A046F0BDD138002034
:104C300000B585B0029003910121009313004A4210
:104C400002A90248FFF7E2FC05B000BDD3380020FE
:104C500001480421014B1847F0C30020414A0020BD
:104C600010B5010018231B8814221088984710BD26
:104C700010B5010018231B8816221088984710BD14
:104C8000F0B5C64600B507000E0000250123984682
:104C900000E00135B5420AD2AC003C192068FFF7AC
:104CA000DFFF20600028F4D100239846F1E740465A
:104CB00080BCB846F0BD0000124A936F9B0815D225
:104CC0009066D166002905D0FFE7FFE7FFE7516F47
:104CD000106F704704B580210906C21751400028A3
:104CE00000D0C84303F0F6FE002104BDF0B5146EF9
:104CF000556E576F166FFFF7E3FF146655665767DB
:104D00001667F0BD000000D0114A936F9B0813D2C4
:104D100010665166002905D0FFE7FFE7FFE7516FF6
:104D2000106F704704B5002801D00020C04303F085
:104D3000D1FE002104BDC046F0B5146E556E576F0C
:104D4000166FFFF7E5FF1466556657671667F0BDE7
:104D5000000000D094464A4A926F9208624601D2FF
:104D600028E0C046F0B5464E346E756E776F366FEC
:104D700000F020F89446424A146655665767166755
:104D80006246F0BD94463E4A926F9208624601D256
:104D900054E0C046F0B53A4E346E756E776F366F9C
:104DA00000F04CF89446364A146655665767166705
:104DB0006246F0BD002B24DB11D000293EDA00B59D
:104DC000C943404200D1013100F038F8C9434042A4
:104DD00000D10131DB43524200D1013300BD002A32
:104DE000EBD1002801D1002905D00020C90FC90747
:104DF00001D1C043410800B503F06CFE002200233E
:104E000000BD00B500290ADBDB43524200D101336B
:104E100000F014F8C943404200D1013100BDC9433C
:104E2000404200D10131DB43524200D1013300F056
:104E300005F8DB43524200D1013300BD002923D1E4
:104E4000002B18D1002A0CD0BC460D4F38667A666C
:104E500000210023FFE7FFE7FFE77A6F386F67461F
:104E60007047002801D00748010000B503F032FE6A
:104E70000022002300BD02000B000020002170472B
:104E8000000000D0FFFFFFFF002B00D0BFE0130C9D
:104E900028D1002AE7D080B4114F39667A66FFE73F
:104EA000FFE730B4040C7B6F396F1B0423433B6670
:104EB0007A66FFE7FFE7FFE7C04684B27B6F3D6F8E
:104EC0001B0423433B667A66FFE7FFE7C0460023E7
:104ED0002C042D0C7A6F386F00196941B0BC7047F3
:104EE000000000D0F0B594460025140E01D1120246
:104EF0000835140F01D112010435940F01D192002D
:104F00000235D40F01D152000135D40B0134254FA5
:104F10007C66254C3C660E0C93B2FFE7FFE7FFE78B
:104F20003C6F6643360C7703BE467343DF0B5B046E
:104F3000C01AB941130C7343DB18C91ACE08664373
:104F4000360CB64493B273431F0F1B01C01AB9410C
:104F5000130C73431F0B1B05C01AB941860D8F023A
:104F60003E436643360C092D24DB520A7243801AF5
:104F70007703460A6643360C16235B1BDE40DF4090
:104F8000BF1964466643821B704604350633010030
:104F9000D940A840C01900D30131A24206D2002353
:104FA000F0BD0000000000D0FFFFFFFF121B01302A
:104FB000F3D3F1E709277F1BFE406446A2B2724398
:104FC000801A00D20139220C7243130C1204821A87
:104FD00099410B007046043513370100F940A84091
:104FE000801900D30131002B02D1A2420AD2F0BDB8
:104FF000013000D30131121BFAD2013BF8D1A24299
:1050000000D2F0BD013000D30131121BF7E7F0B53B
:105010001C0C00D080E00CB400251C0A04D11B023B
:10502000160E3343120208351C0B04D11B01160F58
:105030003343120104359C0B04D19B00960F33437C
:1050400092000235DC0B02D192185B4101351C0045
:10505000971864410134464F7C66464C3C660E0C02
:10506000FFE7FFE7FFE7C0463C6F6643360C770378
:10507000BE4697B27743C01B00D20139C01B00D295
:1050800001399FB27743C91BC91B170C77437E04B4
:10509000FF0B801BB941CE086643360C0C2D33DB69
:1050A000B644120B1F053A431B0B97B27743C01B44
:1050B00000D201399FB27743C91B170C77433E04D6
:1050C0003F0C801BB941860D8F023E436643292762
:1050D0007F1BFE400C3D7746AF40BF1930BCA2B2EB
:1050E000ABB272437343801A9941220C7243130C82
:1050F0001204801A994102000B000137001BA941DC
:10510000F9D2781E0021F0BD0C277F1BFE407746A8
:105110007F0BAF40FF19E0E700245D1C07D0144F60
:105120007D663966FFE7FFE7FFE7FFE73C6F95B273
:105130009EB265436643401BB141150C1E0C65438E
:10514000664336042F0C3E432D04401BB141994267
:1051500004D202000B0020000021F0BD01D19042DA
:10516000F7D3801A994101349942F2D3F6E700004F
:10517000000000D0FFFFFFFF48404140484018B406
:105180001B4B5B68FC46019308BD04DF13520020F3
:1051900018B4174B1B68FC46019308BD00DF1D5275
:1051A00000209446134A926F920809D2624618B4BE
:1051B0000F4BDB68FC46019308BD0CDFD554002083
:1051C0000C4AF0B5146E556E576F166F6246FFF7B6
:1051D000EEFF084A1466556657671667F0BD18B4A7
:1051E000034B9B68FC46019308BD08DF7953002000
:1051F0008C780320000000D0FFB550404240504062
:1052000059404B40594000E0FFB5154F4C00640D2C
:1052100003D0BC4204D10C0314D80020090D0905A9
:105220005C00640D03D0BC4204D11C030AD80022E8
:105230001B0D1B0501264B4009D44B4003D58B4267
:1052400000D18242FFBD9942FCD19042FFBD0B4389
:10525000DB1803431343F5D0C9434918FFBD0000D1
:10526000FF07000000B5FFF7CFFF804100BDC0463B
:1052700000B5FFF7C9FF01D9002000BD012000BD26
:1052800000B5FFF7B9FF01D9002000BD012000BD26
:1052900000B5FFF7B1FF804100BD012040054A0085
:1052A000121804D85A00121801D8002070470120A3
:1052B00070470020704700000021002805D170478A
:1052C000C1174840401AFAD0C90713B5064B1B68EE
:1052D00098470CBC441CA2401005120B0349091B43
:1052E00009051943114310BD8C7903201F040000E8
:1052F00010B54C00620D8023D218DB00D21A5B057A
:105300007E2A10DD9E3A13DACC17090349081943A7
:105310005242D140640001341532202A05DAD040CF
:105320000843604310BD002010BD0846604310BD17
:10533000C80FC018013810BD18B4044B5B6AFC4696
:10534000019308BD24DF8556002000008C780320DF
:1053500070B513231C78012C14D0012C14DC022C02
:1053600002DC1F4A1F4B9A641F48FFF779FC1F4B52
:10537000186070BD99001A481A4A885001331F2BD3
:10538000F8D9EAE70023FAE71948FFF771FC0500AE
:105390001848FFF76DFC023803789B007F2B19DD5E
:1053A000802229000F4800F007FC022CD7D1124BB5
:1053B0001A88B5231B029A4209D1104B1A88104B48
:1053C0009A4204D10F4B1A880F4B9A42C7D0002043
:1053D000FEF786FB0D4B0E4A32210E48FEF7E6FA29
:1053E000D95100208C7803204C3300008C790320A5
:1053F000534400005346000054380000D8380000E1
:10540000494600009C3800005946000008B80020BA
:10541000C0B800205CB8002007B56046002800D165
:1054200000BE01880A0A0230DF2AFAD1C9B2820816
:1054300004D3028840880004104300E00068024A58
:105440005050039007BD00008C7803200FB403BCBC
:105450000CBCF0B50124E407634000E0F0B50C0D8E
:10546000CF0F661E3605891B640503D3C94340422E
:1054700000D30131640D03D0661CF60A07D0E41B8B
:1054800000207F00791C89078912803C24031D0DB0
:10549000DF0F6E1E36059B1B6D0503D3DB435242A7
:1054A00000D301336D0D03D06E1CF60A07D0ED1B3F
:1054B00000227F007B1C9B079B12803D2D032F1B2E
:1054C000661B58D4A446202E46DA20371400BC4070
:1054D0001D00BD40F24033412A4380185941CB0F93
:1054E00005D0C943C0430022644250415141624645
:1054F0004D0D28D10D0D07D100281FD02419404192
:105500004941013A0D0DF9D0640006D3013000D3B2
:105510000131002C01D140084000013A0BD4941C09
:10552000E40A04D112051144DB071944F0BDD90780
:10553000204B194300E0D9070020F0BD0029DDD140
:10554000002CDBD1F0BD0132C6074008CD0728434F
:105550004908002EE1D0D9E73C2E29DA203E403719
:105560001400BC4000D00124F24014431A00BB4098
:105570001C43D317ACE7AC46202F08DA20360400D2
:10558000B4400D00B540F84039412843A5E73C2F11
:105590000CDA203F40360400B44000D00124F8402B
:1055A00004430800B1400C43C117EAE7100019009A
:1055B000002494E70000F07FF0B50C0D661E360560
:1055C000891BE60A6405640D02D0651CED0A04D04F
:1055D000002001210905803C2403A4461C0D671E00
:1055E0003F05DB1BE70A6405640D02D0651CED0A6C
:1055F00004D0002201231B05803C2403774064442F
:1056000097B484B296B27443070C7E43150C6F4373
:1056100080B26843361802D3012000043F183004DA
:10562000350C00197D41844688B29AB250430C0C67
:1056300062431F0C7C438EB27E43921902D3012633
:105640003604A4191604170C3618674101BC81B240
:105650009AB25143040C62431B0C5C4380B2584322
:10566000121802D30120000424181004130C40184F
:1056700063412D185E410020474106BC88B293B2B9
:1056800058430C0C6343120C544389B251435B18CA
:1056900002D301210904641819041A0C0918624183
:1056A0006D1856410020474118BCF902720D114394
:1056B000F0026A0D1043ED020A0D03D16D1940414D
:1056C0004941013B124E9B1B7600B3420ED26D0046
:1056D00007D30130002671416646354301D14008A9
:1056E00040001B05C918E4072144F0BD0BDA013363
:1056F00006D1013004D101314F0D01D04908F2E744
:10570000E1070020F0BD013631050020EBE7000085
:10571000FF030000F0B51C0D671E3F05DB1BE70A09
:105720006405640D02D0661CF60A04D00022012331
:105730001B05803C2403D0252D060026F6432E664B
:105740001E096E66CE0FF619B44649004F0D02D001
:105750007E1CF60A03D000200021403F3F033E1B81
:10576000B600B444013F7F05C91B49082E6F0136BE
:1057700076089C02950D25437543ED137543AD13D3
:1057800001356D10F603761B0CB4CC02450D2C438D
:10579000A2B2B3B25A43270C7B43350C6F43A4B279
:1057A0006C431B1902D3012424043F191C041D0C53
:1057B000A4187D4124196D41009A91B2ACB26143A5
:1057C000170C7C432B0C5F4392B25A43A41802D3AC
:1057D00001221204BF182204230C52187B41019CA1
:1057E0006C431B19520ED9010A434401A01A81B21D
:1057F000B2B2514303145A43360C734387B2774312
:10580000D617D21900277E4136049B191704160CAF
:105810007F185E417316ED18F30100268033754141
:10582000A90F06D16400690AE8055B0A184309D28A
:105830002FE00422944480337541A90AA8059B0AED
:10584000184326D3404149412404009A019B0D008E
:105850005543641B4343E41A95B286B27543170C53
:105860007E43030C5F4392B25A43B61802D301221F
:105870001204BF183204330C52197B4152429C412E
:10588000002C02D40022013051414008CA071043C5
:10589000490802B06246D7079210084BD218084B4D
:1058A0009A4203D212058918C919F0BD0020002AB6
:1058B00001DC3900F0BD01331905F5E7FD030000F7
:1058C000FE070000002200B5203200F004F80800B6
:1058D00000BD000000220B150AD410B5944600F05C
:1058E00031F81414013400DA0021CB17144C20478E
:1058F0000020002170476244343A0CD40C2A07DAA5
:1059000004009140904052422032D440214310BDC7
:10591000D843D94310BD203207D40C46944052429C
:1059200020321141D040204310BD0800C917203259
:1059300003D452422032104110BD1800190010BD8E
:10594000B75600200A0DCC0F531E1B05C91A52056D
:1059500003D3C943404200D30131520D03D0531C3D
:10596000DB0A07D0121B00206400611C8907891222
:10597000803A1203014BD21A70470000FF03000067
:1059800051434343C9188C46110C83B24B4310B4A6
:10599000040C614392B280B2504362431C041B0C5E
:1059A000001910BC59411304120CC0185141614434
:1059B0007047000048404140484000239C46114B3E
:1059C0005B68184700239C460E4B1B6818470E4A1D
:1059D000936F9B0804D200239C460A4BDB68184750
:1059E000F0B5146E556E576F166FFFF7F4FF064A49
:1059F0001466556657671667F0BD00239C46014B39
:105A00009B68184790790320000000D0491A0028AD
:105A100008D1084670470000C10FC90700D54042B1
:105A2000002817D0F44603B40B4B1B68984706BCFC
:105A300081409E384042803107D20B0607D0490092
:105A4000490AC0051043084360470130F8E7490A96
:105A50008902F5E7704700008C79032000239C46FB
:105A6000014B5B6A184700009079032070B513233F
:105A70001D782A48FFF7FCF80400012D11D0012DF4
:105A800009DDA31E1B789B007F2B40DD80222100B7
:105A9000234800F091F82348FFF7E2F8224B186002
:105AA00070BD542201001E4800F086F81F4B1A8872
:105AB0001F4B9A421CD1A7239B011A881D4B9A4267
:105AC00016D11D4B1A881D4B9A4211D11C4B1A88B6
